:020000040800F2
:10000000400F002001010008BD1D00084B1C000826
:10001000B91D0008DD010008D92400080000000017
:10002000000000000000000000000000E91D0008C2
:100030001D02000800000000BF1D0008491E000846
:100040001B0100081B0100081B0100081B01000820
:100050001B0100081B0100081B0100081B01000810
:100060001B0100081B0100081B0100081B01000800
:100070001B0100081B0100081B0100081B010008F0
:10008000E10100081B0100081B0100081B0100081A
:100090001B0100081B0100081B0100081B010008D0
:1000A0001B0100081B0100081B0100081B010008C0
:1000B0001B010008111F00081B0100081B0100089C
:1000C0001B0100081B0100081B0100081B010008A0
:1000D0001B01000831240008412400081B0100080E
:1000E0001B0100081B0100081B010008DFF80CD0F1
:1000F00000F062F80048004779270008400F002010
:100100000648804706480047FEE7FEE7FEE7FEE7B1
:10011000FEE7FEE7FEE7FEE7FEE7FEE7B91E0008A2
:10012000ED00000840EA01039B0703D009E008C97D
:10013000121F08C0042AFAD203E011F8013B00F8AC
:10014000013B521EF9D27047D2B201E000F8012BF8
:10015000491EFBD270470022F6E710B513460A4647
:1001600004461946FFF7F0FF204610BD421E12F864
:10017000013F002BFBD111F8013B02F8013B002BA2
:10018000F9D1704730B505462A460B4612F8010BE7
:1001900013F8014B08B1A042F8D01CB1002802D0DE
:1001A0006D1CF1E7284630BD421C10F8011B0029E8
:1001B000FBD1801A70470000064C074D06E0E0684E
:1001C00040F0010394E8070098471034AC42F6D39E
:1001D000FFF790FFBC2F0008DC2F000800BFFEE7F0
:1001E00010B5024800F0D6F810BD0000F400002061
:1001F00030B590F840500124AC40C56B6C60046889
:1002000063604468102C04D10468A2600468E16053
:1002100003E00468A1600468E26030BD704700003C
:1002200008B5174800680068C06840F0200014490D
:1002300009680968C860124800680068C06840F032
:1002400010000F4909680968C86000BF00200090CD
:100250000B48006800680068009009480068006862
:100260004068009000BF00BF4FF480620549044819
:10027000006801F085FB044801F046F808BD000065
:100280000400002040010020340000207047014697
:10029000002291F82100022808D00420886300BFC2
:1002A000002081F8200000BF012070470868006826
:1002B00020F00E000B6818600868006820F001004C
:1002C0000B68186091F8403001209840CB6B586063
:1002D000012081F8210000BF002081F8200000BF2C
:1002E0001046E2E770B50446002594F82100022884
:1002F00003D00420A063012548E02068006820F0B6
:100300000E00216808602068006820F00100216864
:1003100008601F492068884201D1012026E01C495D
:1003200014312068884201D110201FE0184928317B
:100330002068884201D1801518E015493C312068B9
:10034000884201D1801411E011495031206888425F
:1003500002D14FF4803009E00D49643120688842B1
:1003600002D14FF4801001E04FF080700849083945
:100370004860012084F8210000BF002084F820009C
:1003800000BF606B10B12046616B8847284670BD86
:100390000800024070B50446E06B056820680668F6
:1003A00094F84010042088402840002846D006F0E9
:1003B0000400002842D02068006800F0200028B91E
:1003C0002068006820F00400216808605749206810
:1003D000884201D1042027E0544914312068884222
:1003E00001D1402020E0514928312068884201D1C4
:1003F000001519E04D493C312068884202D14FF484
:10040000804011E0494950312068884202D14FF4C0
:10041000802009E0454964312068884202D14FF4C8
:10042000800001E04FF08060404908394860E06A90
:1004300000287AD02046E16A884776E094F8401098
:10044000022088402840A0B306F0020088B320684C
:10045000006800F0200040B92068006820F00A0021
:1004600021680860012084F8210030492068884212
:1004700001D1022028E02D4914312068884201D1A1
:10048000202021E0294928312068884201D14015E7
:100490001AE026493C312068884202D14FF40050CE
:1004A00012E0224950312068884203D14FF40030D5
:1004B0000AE017E01D4964312068884202D14FF4F8
:1004C000001001E04FF0007018490839486000BF83
:1004D000002084F8200000BFA06A30B32046A16A43
:1004E000884722E094F84010082088402840E0B176
:1004F00006F00800C8B12068006820F00E002168EE
:10050000086094F8401001208840E16B48600120A9
:10051000A06384F8210000BF002084F8200000BF01
:10052000206B10B12046216B884770BD0800024047
:100530000146002209B901207047164B0868C01A0D
:100540001423B0FBF3F08000086412480838C86335
:10055000022081F821000868026843F6F0708243A7
:10056000D1E901031843CB6818430B6918434B6961
:1005700018438B691843CB6918430243086802602B
:1005800000208863012081F82100002081F82000EC
:1005900000BFD1E7080002402DE9F04104460D46B6
:1005A00016461F464FF0000800BF94F820000128AF
:1005B00002D10220BDE8F081012084F8200000BFB4
:1005C00094F8210001282CD1022084F82100002079
:1005D000A0632068006820F00100216808603B46A5
:1005E000324629462046FFF703FEE06A30B1206814
:1005F000006840F00E00216808600BE02068006889
:1006000020F00400216808602068006840F00A00BB
:10061000216808602068006840F0010021680860D7
:1006200006E000BF002084F8200000BF4FF0020861
:100630004046BFE770B5044600F0A0F906462546DF
:10064000681C10B104480078054400BF00F096F91A
:10065000801BA842FAD370BD200000202DE9F84786
:100660000346002294466EE14FF0010808FA02F4B6
:10067000D1F8008008EA0400A0427DD1DFF8DCA2B6
:10068000D1F80480A8EB0A09D0453AD014DCB8F1BF
:10069000030F50D009DCB8F1000F31D0B8F1010FD1
:1006A0001CD0B8F1020F49D120E0B8F1110F18D0D9
:1006B000B8F1120F42D11EE0B9F5881F25D006DC33
:1006C000B9F5803F20D0B9F5801F37D11AE0B9F5D0
:1006D000001F18D0B9F5041F30D117E0D1F80CC0B5
:1006E0002DE0D1F80C8008F1040C28E0D1F80C8042
:1006F00008F1080C23E0D1F80C8008F10C0C1EE086
:1007000000BF00BF00BF00BF00BF00BFD1F808801E
:10071000B8F1000F02D14FF0040C0BE0D1F80880C3
:10072000B8F1010F03D14FF0080C1C6102E04FF04B
:10073000080C5C6103E04FF0000C00E000BF00BF5C
:10074000FF2801D8984601E003F104084646FF2837
:1007500002D84FEA820803E0A2F108084FEA8808AD
:100760004746D6F800804FF00F0909FA07F928EA42
:1007700009080CFA07F900E088E048EA0908C6F819
:100780000080D1F8048008F08058B8F1805F7DD1F6
:1007900000BFDFF8CC81D8F8188048F00108DFF8F6
:1007A000C091C9F81880C846D8F8188008F0010828
:1007B000CDF8008000BF00BF4FEAB9384FEA920978
:1007C00058F829504FEA82784FEA18794FF00F080D
:1007D00008FA09F825EA0805DFF88881434502D1BF
:1007E0004FF0000816E0DFF88081434502D14FF05A
:1007F00001080FE0DFF87481434502D14FF0020891
:1008000008E0DFF86C81434502D14FF0030801E0B6
:100810004FF004084FEA82794FEA197908FA09F88B
:1008200048EA0505DFF84C814FEA920948F829505B
:10083000D1F8048008F48038B8F5803F0AD1DFF899
:100840003881D8F8008048EA0008DFF82C91C9F810
:10085000008009E0DFF82081D8F8008028EA00084D
:10086000DFF81491C9F80080D1F8048008F400384A
:10087000B8F5003F10D1DFF8008108F10408D8F87E
:10088000008048EA0008DFF8F09000E05AE009F143
:100890000409C9F800800DE0DFF8DC8008F10408E5
:1008A000D8F8008028EA0008DFF8CC9009F10409A4
:1008B000C9F80080D1F8048008F48018B8F5801FCA
:1008C0000ED1DFF8B48008F10808D8F8008048EAB3
:1008D0000008DFF8A49009F10809C9F800800DE0CC
:1008E000DFF8948008F10808D8F8008028EA0008AA
:1008F000DFF8849009F10809C9F80080D1F8048074
:1009000008F40018B8F5001F0ED1DFF86C8008F16C
:100910000C08D8F8008048EA0008DFF85C9009F17C
:100920000C09C9F800800DE0DFF84C8008F10C08D4
:10093000D8F8008028EA0008DFF83C9009F10C099B
:10094000C9F80080521CD1F8008028FA02F8B8F1EA
:10095000000F7FF489AEBDE8F88700000000111099
:100960000010024000080140000C0140001001404E
:1009700000140140080001400004014001480068E3
:1009800070470000180000200348006803490978F8
:10099000084401490860704718000020200000202A
:1009A00010B50848006840F01000064908600320B0
:1009B00000F0ACF8002000F007F800F02BF8002061
:1009C00010BD00000020024070B504460E480078BB
:1009D0004FF47A71B1FBF0F00C490968B1FBF0F506
:1009E000284600F00FFC08B1012070BD102C07D282
:1009F00000222146501E00F04BF80548046001E03B
:100A00000120F2E70020F0E7200000202400002071
:100A10001C00002008B500BF1348806940F00100A9
:100A2000114988610846806900F00100009000BF0C
:100A300000BF00BF0846C06940F08050C86108464A
:100A4000C06900F08050009000BF00BF052000F09A
:100A50005DF800BF0549486820F0E06040F0007094
:100A6000486000BF08BD00000010024000000140C7
:100A700001460846002809DB00F01F0301229A40C6
:100A800043099B0003F1E023C3F8002100BF704736
:100A90002DE9F05F80460D461646002701F026FD41
:100AA000074639462A46334601F00700C0F1070AD7
:100AB000BAF1040F02D94FF0040A01E0C0F1070AAD
:100AC000D14600F1040ABAF1070F02D24FF0000A32
:100AD00001E0A0F1030AD4464FF0010A0AFA09FA2C
:100AE000AAF1010A0AEA020A0AFA0CFA4FF0010B0B
:100AF0000BFA0CFBABF1010B0BEA030B4AEA0B04FC
:100B00002146404601F0FAFCBDE8F09F00BF00F02E
:100B10000702064B19684FF6FF031940044B0B43BD
:100B200043EA0221014B196000BF70470CED00E061
:100B30000000FA0570B504460D460CB9012070BDE1
:100B40005A48006800F00700A8420ED257480068D3
:100B500020F007002843554908600846006800F067
:100B60000700A84201D00120E9E7207800F0020048
:100B700002281DD1207800F00400042805D14C483B
:100B8000406840F4E0604A494860207800F008007E
:100B9000082805D14648406840F460504449486000
:100BA0004348406820F0F000A1680843404948608D
:100BB000207800F0010078B36068012806D13C4835
:100BC000006800F4003090B90120B8E7606802289E
:100BD00006D13748006800F0007040B90120AEE748
:100BE0003348006800F0020008B90120A7E7304848
:100BF000406820F00300616808432D494860FFF712
:100C0000BDFE064609E0FFF7B9FE801B41F28831C0
:100C1000884202D9032092E707E02548406800F0A7
:100C20000C006168B0EB810FEDD12048006800F046
:100C30000700A8420ED91D48006820F0070028438D
:100C40001A4908600846006800F00700A84201D071
:100C5000012074E7207800F00400042807D114482C
:100C6000406820F4E060E16808431149486020785A
:100C700000F00800082808D10D48406820F46050B2
:100C8000216940EAC1000A49486000F03FF808497C
:100C90004968C1F30311074A515CC840064908601E
:100CA00006480068FFF790FE002048E70020024059
:100CB00000100240A42F0008240000201C00002087
:100CC00001480068704700002400002000B5FFF7CD
:100CD000F7FF04494968C1F30221034A515CC84047
:100CE00000BD000000100240B42F000800B5FFF75F
:100CF000E7FF04494968C1F3C221034A515CC84077
:100D000000BD000000100240B42F0008F0B585B00F
:100D10000FF26C0C9CE8E01001A8A0E8E0101CA504
:100D20002D68009500210022002300240020194D89
:100D3000696801F00C05F5B1042D02D0082D19D118
:100D400001E0154819E001ADC1F38346AC5D01F443
:100D5000803555B10F4D6D68C5F340451DF8052030
:100D60000D4D6543B5FBF2F302E00C4D04FB05F3BA
:100D7000184602E000BF084800BF00BF05B0F0BD44
:100D800002030405060708090A0B0C0D0E0F1010CC
:100D9000010200000010024000127A0000093D002C
:100DA000F8B504460CB90120F8BD207800F0010028
:100DB000002878D0F848406800F00C0004280CD0D7
:100DC000F548406800F00C00082811D1F24840684E
:100DD00000F48030B0F5803F0AD1EF48006800F49D
:100DE000003000285FD0606800285CD10120DBE77C
:100DF00000BF6068B0F5803F06D1E748006840F466
:100E00008030E549086028E0606858B9E248006829
:100E100020F48030E04908600846006820F4802013
:100E200008601AE06068B0F5A02F0BD1DA480068BE
:100E300040F48020D84908600846006840F48030BB
:100E400008600AE0D448006820F48030D249086085
:100E50000846006820F48020086000BF606888B100
:100E6000FFF78CFD054606E0FFF788FD401B642870
:100E700001D9032098E7C848006800F40030002832
:100E8000F2D010E0FFF77AFD054606E0FFF776FDA9
:100E9000401B642801D9032086E7BF48006800F49E
:100EA00000300028F2D1207800F00200022857D14B
:100EB000B948406800F00C0050B1B748406800F0F5
:100EC0000C00082818D1B448406800F4803098B964
:100ED000B148006800F0020020B12069012801D06B
:100EE000012061E7AC48006820F0F800616940EA41
:100EF000C100A949086033E02069E8B10120A74991
:100F00000860FFF73BFD054606E0FFF737FD401B95
:100F1000022801D9032047E79F48006800F002003B
:100F20000028F2D09C48006820F0F800616940EA8F
:100F3000C1009949086013E0002098490860FFF754
:100F40001DFD054606E0FFF719FD401B022801D9EB
:100F5000032029E79048006800F002000028F2D141
:100F6000207800F0080008282DD1A069B8B1012030
:100F70008B490860FFF702FD054606E0FFF7FEFC1F
:100F8000401B022801D903200EE78348406A00F085
:100F900002000028F2D0012000F012FF13E0002030
:100FA0007F490860FFF7EAFC054606E0FFF7E6FC2C
:100FB000401B022801D90320F6E67748406A00F07A
:100FC00002000028F2D1207800F00400042873D138
:100FD00000277148C06900F0805070B900BF6E48AA
:100FE000C06940F080506C49C8610846C06900F093
:100FF0008050009000BF00BF01276A48006800F4DD
:101000008070B0B96748006840F480706549086036
:10101000FFF7B4FC054606E0FFF7B0FC401B642870
:1010200001D90320C0E65F48006800F48070002802
:10103000F2D000BFE068012806D15748006A40F0AE
:1010400001005549086227E0E06858B95248006A33
:1010500020F00100504908620846006A20F00400B0
:10106000086219E0E06805280BD14B48006A40F09F
:101070000400494908620846006A40F0010008621D
:101080000AE04548006A20F001004349086208462A
:10109000006A20F00400086200BFE068A0B1FFF71A
:1010A0006DFC054609E0FFF769FC401B41F2883101
:1010B000884202D9032077E622E03748006A00F030
:1010C00002000028EFD012E0FFF758FC054608E0C8
:1010D000FFF754FC401B41F28831884201D90320BC
:1010E00062E62D48006A00F002000028F0D1012FCE
:1010F00005D12948C06920F080502749C86100BF48
:10110000E069C8B32448406800F00C00082860D0AB
:10111000E069022848D1002020490866FFF72EFC2C
:10112000054606E0FFF72AFC401B022801D90320F0
:101130003AE61948006800F000700028F2D1206AF1
:10114000B0F5803F07D11448406820F40030A16812
:10115000084311494860D4E9080108430E49496829
:1011600021F4741108430C49486001200B490866BA
:10117000FFF704FC054607E03DE0FFF7FFFB401BDF
:10118000022801D903200FE60348006800F0007030
:101190000028F2D02FE00000001002400000424280
:1011A0008004424200700040002014490866FFF7A6
:1011B000E5FB054606E0FFF7E1FB401B022801D9ED
:1011C0000320F1E50E48006800F000700028F2D11D
:1011D00011E0E069012800D1E6E50948466806F417
:1011E0008031206A814204D106F47011606A814224
:1011F00001D00120D8E50020D6E5000000004242E1
:101200000010024070B504462546681EB0F1807F8C
:1012100001D301200FE0681E4FF0E02148610F214B
:101220004FF0FF3001F06AF900204FF0E0218861B3
:1012300007200861002070BD7047704710B5024656
:1012400000BF92F83C00012801D1022010BD01200E
:1012500082F83C0000BF022082F83D00106843681D
:101260001068846823F070030868034324F0800446
:10127000486804431068436010688460012082F865
:101280003D0000BF002082F83C0000BF00BFDDE74A
:1012900010B504460CB9012010BD94F83D0028B9E2
:1012A000002084F83C00204600F00CF8022084F86E
:1012B0003D00211D206800F033FE012084F83D0030
:1012C0000020E9E738B504460D492068884215D169
:1012D00000BF0C48C06940F002000A49C8610846D6
:1012E000C06900F00200009000BF00BF0022012191
:1012F0001D20FFF7CDFB1D20FFF7BAFB38BD000016
:10130000000400400010024001460868C06840F038
:1013100001000B68D8600868806800F00702062AA0
:1013200005D00868006840F001000B6818600020D4
:1013300070472DE9F04104460D4600BF94F83C008B
:10134000012802D10220BDE8F081012084F83C0090
:1013500000BF022084F83D002068866826F07706EA
:1013600026F47F46206886602868502833D00CDC3D
:10137000202850D004DC00284BD0102851D149E05F
:10138000302849D040284CD139E060282DD0702831
:1013900007D0B0F5805F03D0B0F5005F41D10DE01C
:1013A00040E0D5E902136A68206800F0F3FD206888
:1013B000866846F077062068866033E0D5E9021338
:1013C0006A68206800F0E6FD2068806840F480408C
:1013D0002168886026E0EA686968206800F0EEFD10
:1013E0005021206800F0E1FD1CE0EA68696820688F
:1013F00000F0F7FD6021206800F0D7FD12E0EA68F8
:101400006968206800F0DAFD4021206800F0CDFD19
:1014100008E000BF00BF00BF2968206800F0C5FDDC
:1014200000E000BF00BF012084F83D0000BF0020A5
:1014300084F83C0000BF00BF85E7704710B5044644
:1014400020680069C0F34000D8B12068C068C0F3CC
:101450004000B0B16FF002002168086101202077E0
:101460002068806900F0030018B12046FFF7E5FF0F
:1014700005E0204600F0ADF8204600F0ABF8002073
:10148000207720680069C0F38000D8B12068C06868
:10149000C0F38000B0B16FF0040021680861022041
:1014A00020772068806900F4407018B12046FFF76B
:1014B000C4FF05E0204600F08CF8204600F08AF8D2
:1014C0000020207720680069C0F3C000D8B12068F0
:1014D000C068C0F3C000B0B16FF0080021680861B7
:1014E000042020772068C06900F0030018B120466E
:1014F000FFF7A3FF05E0204600F06BF8204600F060
:1015000069F80020207720680069C0F30010D8B186
:101510002068C068C0F30010B0B16FF010002168FF
:101520000861082020772068C06900F4407018B175
:101530002046FFF782FF05E0204600F04AF82046EB
:1015400000F048F8002020772068006900F00100D2
:1015500058B12068C06800F0010030B16FF00100A0
:1015600021680861204600F037F820680069C0F360
:10157000C01058B12068C068C0F3C01030B16FF01F
:101580008000216808612046FFF756FE2068006948
:10159000C0F3801058B12068C068C0F3801030B12B
:1015A0006FF0400021680861204600F02DF82068A7
:1015B0000069C0F3401058B12068C068C0F3401003
:1015C00030B16FF02000216808612046FFF735FE3A
:1015D00010BD70477047000010B5044608488442AB
:1015E0000DD108480078401C06490870084600786C
:1015F0000A2804DB01F0ACF900200249087010BD94
:101600003400002000000020704770B5044600251B
:1016100020684069C0F3C01594F8390021280ED124
:101620006DB12068406920F0800021684861206B1E
:1016300010B1206BFEF72BFE204600F062FD206803
:101640004069C0F3801594F83A0022280ED16DB19C
:101650002068406920F0400021684861606B10B14B
:10166000606BFEF714FE204600F02BFD002070BDDD
:10167000704700002DE9F04704462068056820689F
:10168000C668206847694FF00008C14605F00F089A
:10169000B8F1000F0AD105F0200038B106F02000A3
:1016A00020B1204600F037FDBDE8F087B8F1000F0B
:1016B0006DD007F0010018B906F49070002866D0CC
:1016C00005F0010030B106F4807018B1E06B40F015
:1016D0000100E06305F0040030B107F0010018B12B
:1016E000E06B40F00200E06305F0020030B107F06B
:1016F000010018B1E06B40F00400E06305F0080061
:1017000030B107F0010018B1E06B40F00800E06371
:10171000E06B68B305F0200028B106F0200010B19E
:10172000204600F0F8FC20684069C0F38019E06BA7
:1017300000F0080010B9B9F1000F22D0204600F0E7
:10174000C0FC2068406900F04000B0B120684069EA
:1017500020F0400021684861606B50B11748616B10
:101760004863606BFEF7BEFD10B1606B416B88474C
:101770000CE02046FFF77CFF08E02046FFF778FFEB
:1017800004E02046FFF774FF0020E0638CE705F0DB
:10179000800030B106F0800018B1204600F0DEFD78
:1017A00082E705F0400030B106F0400018B1204655
:1017B00000F097FC78E700BF76E700000B200008F8
:1017C00010B504460CB9012010BDA06900B100E0BD
:1017D00000BF94F8390028B9002084F8380020466A
:1017E00000F028F8242084F839002068C06820F42C
:1017F00000502168C860204600F0E0FC20680069C5
:1018000020F49040216808612068406920F02A0097
:10181000216848612068C06840F400502168C860B1
:101820000020E063202084F8390084F83A0000208A
:10183000CAE7000010B586B004460020029003906D
:101840000490059048492068884237D100BF474836
:10185000806940F48040454988610846806900F409
:101860008040019000BF00BF00BF0846806940F083
:10187000040088610846806900F00400019000BF00
:1018800000BF48150290022003900320059002A992
:101890003748FEF7E3FE4FF480600290002003908B
:1018A000049002A93248FEF7D9FE0122002125202A
:1018B000FFF7EEF82520FFF7DBF852E02D4920680E
:1018C00088424ED100BF2948C06940F40030274902
:1018D000C8610846C06900F40030019000BF00BF35
:1018E00000BF0846806940F00400886108468069AE
:1018F00000F00400019000BF00BF0420029002200D
:1019000003900320059002A91948FEF7A7FE0820BE
:10191000029000200390049002A91548FEF79EFE55
:10192000154816490860002048600021134881606E
:101930008021C1600021016141618161C161FEF7C7
:10194000F7FD08B1FEF7A2FC00BF0C4860634462DB
:1019500000BF002211462620FFF79AF82620FFF745
:1019600087F806B010BD00000038014000100240AA
:1019700000080140004400406C000240F4000020D8
:1019800077B581B00446154694F83A00202850D126
:10199000029800B115B9012004B070BD00BF94F8E1
:1019A0003800012801D10220F6E7012084F8380030
:1019B00000BF0298A062A5850020E063222084F881
:1019C0003A001D48616B88621C48616BC8621C4804
:1019D000616B08630020616B486302AE3268236864
:1019E000191D2B46606BFEF7D7FD00BF002000904D
:1019F00020680068009020684068009000BF00BF29
:101A000000BF002084F8380000BF2068C06840F4A0
:101A100080702168C8602068406940F0010021683A
:101A200048612068406940F040002168486100201A
:101A3000B2E70220B0E700006F200008B5200008E0
:101A40001F2000082DE9F041074645A14648FEF752
:101A500099FB80460024002544493868884278D1A3
:101A6000B8F1000F49D000BF601C81B20C463E485F
:101A7000405C3A28F8D100BF601E81B20C463A485B
:101A8000405C2C28F8D1601C84B20AE02046611C1E
:101A90008CB23549085C303805EB850100EB41001C
:101AA00085B23148005D3A28F0D1601C86B22E48DC
:101AB00008388088002811DD2B4A9119083A93884C
:101AC00002F5816298182A46FEF72CFB2648083852
:101AD0008088284424490839888009E022488119EF
:101AE0002A4600F58060FEF71DFB1F4808388580F8
:101AF00001201D49083908702BE01B480838C088B0
:101B0000002814DD184908394A88CB8801F5C161DD
:101B100058181549FEF706FB13480838C0881249C3
:101B200008394988084410490839C8800DE00E4832
:101B3000083842880C4900F5C160FEF7F3FA0A48FC
:101B40000838408808490839C88001200649083902
:101B500048704FF480610448FEF7FDFABDE8F0815B
:101B60002B49504400000000400100200044004088
:101B700070472DE9F84304460D4616461F464FF0C0
:101B8000000994F8390020285CD105B116B901206C
:101B9000BDE8F88300BF94F83800012801D1022085
:101BA000F6E7012084F8380000BF0020E063212020
:101BB00084F83900FEF7E2FE8146A684E6842BE035
:101BC000E08C401EE084A068B0F5805F16D14B46E3
:101BD000002280212046009700F0F4FB08B103208A
:101BE000D6E7A846B8F80000C0F3080021684860AE
:101BF000206908B9AD1C0FE06D1C0DE04B460022BA
:101C000080212046009700F0DDFB08B10320BFE7EC
:101C100015F8010B21684860E08C0028D0D14B46B4
:101C2000002240212046009700F0CCFB08B10320A1
:101C3000AEE7202084F8390000BF002084F8380087
:101C400000BFA5E70220A3E7704700BFFEE7000042
:101C500008B500BF0A48406940F0010008494861E2
:101C60000846406900F00100009000BF00BF00225C
:101C700011461020FEF70CFF1020FEF7F9FE08BDFC
:101C80000010024008B500BF1348806940F0100002
:101C9000114988610846806900F01000009000BF7B
:101CA00000BF00BF0846806940F0200088610846F8
:101CB000806900F02000009000BF00BF00BF084610
:101CC000806940F0040088610846806900F00400E3
:101CD000009000BF00BF08BD0010024000B587B0F3
:101CE0000020039004900590069001900290144803
:101CF000144908604720486000211248816042F280
:101D00000F71C160002101618161FFF7C1FA08B163
:101D1000FEF7BCFA4FF48050039003A90948FFF77F
:101D200008FB08B1FEF7B2FA00200190029001A969
:101D30000448FFF783FA08B1FEF7A8FA07B000BD20
:101D4000000400403400002010B50B480B49086027
:101D50004FF4E1304860002108488160C1600161B2
:101D60000C21416100218161C161FFF729FD08B1AA
:101D7000FEF78CFA10BD000000380140740000200E
:101D800010B50B480B4908604FF4E1304860002162
:101D900008488160C16001610C21416100218161BD
:101DA000C161FFF70DFD08B1FEF770FA10BD00002C
:101DB00000440040B400002000BFFEE770477047B9
:101DC00008B508490968C9084FF47A72B1FBF2F105
:101DD0004143009100BF00BF00994A1E00920029B4
:101DE000F9D108BD24000020704700002DE9F04122
:101DF00004460D46164600271EE02046FEF7D4F99D
:101E00001FFA80F84FF6FF73424621460C480068DF
:101E1000FFF7AFFE4FF6FF7302220AA108480068E1
:101E2000FFF7A7FE3046FEF705FC287810B1012029
:101E3000BDE8F081781CC7B2032FDEDB0020F7E796
:101E4000040000200D0A000010B5FEF79DFD10BD36
:101E500000B58FB0282105A8FEF77DF9142168464A
:101E6000FEF779F901200590000406900020079004
:101E70000120099002200C90C1030D914FF4E01154
:101E80000E9105A8FEF78CFF08B1FEF7FFF90F20B1
:101E9000009002200190002002904FF48060039097
:101EA0000020049002216846FEF744FE08B1FEF7C8
:101EB000EDF90FB000BD00001148006840F00100CE
:101EC0000F490860084640680E4908400C494860C0
:101ED000084600680C49084009490860084600683F
:101EE00020F4802008600846406820F4FE00486026
:101EF0004FF41F008860C803044908607047000061
:101F0000001002400000FFF8FFFFF6FE08ED00E0C1
:101F100010B50248FFF792FA10BD0000340000200F
:101F200010B50268184B984208D0B0F1804F05D028
:101F3000164B984202D0164B984203D122F0700201
:101F40004B681A43104B984208D0B0F1804F05D02F
:101F50000E4B984202D00E4B984203D122F44072AD
:101F6000CB681A4322F080034C6943EA0402026002
:101F70008B68C3620B688362034B984201D10B6983
:101F800003630123436110BD002C014000040040A5
:101F90000008004030B50C46816821F47F4142EAD8
:101FA000032525432943816030BD0A46816821F01D
:101FB000700142F0070319438160704730B50B464A
:101FC0001446026A056A25F001050562816921F05F
:101FD000F00141EA041122F00A021A43816102620F
:101FE00030BD30B50B461446056A25F01005056274
:101FF0008169026A21F4704141EA043122F0A002B1
:1020000042EA03128161026230BD70B505466C6A16
:102010000020E085E0842046FFF72AFB70BD70B504
:1020200006460025746A20684069C0F3C01594F81C
:102030003900212805D125B10020E084204600F098
:1020400060F820684069C0F3801594F83A002228AF
:1020500005D125B10020E085204600F032F8E06B84
:1020600040F01000E0632046FFF702FB70BD70B542
:1020700005466C6A2868006800F02000B0B90020AE
:10208000E0852068C06820F480702168C8602068FE
:10209000406920F00100216848612068406920F013
:1020A000400021684861202084F83A002046FFF76C
:1020B000C9FC70BD70B50446656A2846FFF758FD37
:1020C00070BD0168C96821F490710268D16001682F
:1020D000496921F0010102685161202180F83A101C
:1020E000704710B504462068C06820F040002168A1
:1020F000C860202084F839002046FFF7A5FD0020A5
:1021000010BD0168C96821F0C0010268D1602021BA
:1021100080F83910704770B5044694F83A002228C8
:102120004AD1A068B0F5805F13D1A56A206940B993
:1021300020684068C0F308002880A06A801CA06264
:1021400019E020684068C0B22880A06A401CA062E4
:1021500011E0206938B920684068C1B2A26A501CF9
:10216000A062117007E02068406800F07F01A26A59
:10217000501CA0621170E08D401E80B2E085C8B98D
:102180002068C06820F020002168C8602068C0680E
:1021900020F480702168C8602068406920F0010048
:1021A00021684861202084F83A002046FFF74AFC65
:1021B000002070BD0020FCE70220FAE770B504465D
:1021C0002168096921F44051E268114322681161D4
:1021D0002269A1681143626941EA02052168C96860
:1021E00041F20C62914329432268D1602168496918
:1021F00021F44071A269114322685161564A216855
:10220000914254D1FEF772FD00EBC00101EB0011C9
:1022100062689200B1FBF2F100EBC00202EB001227
:1022200063689B00B2FBF3F26423B2FBF3F202EBB0
:10223000C20303EB0212A1EB8201322202EB011175
:102240006422B1FBF2F101F0F00100EBC00202EBFD
:10225000001263689B00B2FBF3F26423B2FBF3F25B
:1022600001EB021200EBC00101EB001163689B005F
:10227000B1FBF3F100EBC00303EB00136668B6009B
:10228000B3FBF6F36426B3FBF6F303EBC30606EBEE
:102290000313A1EB8301322303EB01116423B1FB90
:1022A000F3F101F00F0111442268916053E0FEF751
:1022B0000DFD00EBC00101EB001162689200B1FB63
:1022C000F2F100EBC00202EB001263689B00B2FB6C
:1022D000F3F26423B2FBF3F202EBC20303EB02124C
:1022E000A1EB8201322202EB01116422B1FBF2F177
:1022F00001F0F00100EBC00202EB001263689B00EA
:10230000B2FBF3F26423B2FBF3F201EB021200EB37
:10231000C00101EB001163689B00B1FBF3F100EB1E
:10232000C00303EB00136668B600B3FBF6F3642644
:10233000B3FBF6F303EBC30606EB0313A1EB830138
:10234000322303EB01116423B1FBF3F101F00F0120
:1023500011442268916070BD00380140014691F837
:10236000390021282CD18868B0F5805F0FD10A6A26
:102370001088C0F308000B685860086918B9086A2B
:10238000801C086209E0086A401C086205E00B6ACC
:10239000581C086218780B685860C88C401E80B2C0
:1023A000C88458B90868C06820F080000B68D860FD
:1023B0000868C06840F040000B68D8600020704793
:1023C0000220FCE72DE9F04104460D4617469846E9
:1023D000069E21E0701CF8B12EB1FEF7CFFAA0EBFB
:1023E0000800B04218D92068C06820F4D070216875
:1023F000C8602068406920F0010021684861202001
:1024000084F8390084F83A0000BF002084F83800CE
:1024100000BF0320BDE8F081206800682840A84282
:1024200001D1012000E00020B842D3D00020F1E724
:1024300010B50248FFF71EF910BD0000740000201F
:1024400010B500F00FF80548FFF714F94FF480625B
:1024500003490248FFF794FA10BD0000B4000020C1
:102460004001002038B51948006800680068C0F3D2
:10247000001050B3002400BF0020009013480068F3
:10248000006800680090114800680068406800908B
:1024900000BF00BF0D480068FFF7B7F80B480068A1
:1024A0000068006884B2094800680068406884B227
:1024B00007480068406884B2C4F5806005494880D8
:1024C00002480068FFF7BEFA00BF38BD04000020D4
:1024D000F40000203801002000BFFEE7014A024955
:1024E00000F02FB80D2700082800002002480068DF
:1024F000C0F30220704700000CED00E010B500288A
:1025000004DB0A07130E054A135406E00A07140EEB
:10251000034A00F00F031B1FD45410BD00E400E079
:1025200018ED00E002E008C8121F08C1002AFAD125
:1025300070477047002001E001C1121F002AFBD143
:1025400070472DE9F04116460F460446002503E08A
:102550003946B047641C6D1C20780028F8D1284605
:10256000BDE8F0811CB54FF47A70FEF763F84FF6C2
:10257000FF730A222BA12E480068FFF7FAFA4FF6E4
:10258000FF7302222BA12A480068FFF7F2FA4FF4EA
:10259000FA70FEF74FF828480078012812D064221C
:1025A000264927A0FFF722FC10B10120234908701B
:1025B0004FF4FA72254926A0FFF718FC10B100204D
:1025C000224908704FF4FA60FEF734F822A0FFF7B2
:1025D00085FF2548007878B924A025A127A328A243
:1025E000CDE9001029A1052000F0F0FB044641F2DE
:1025F00088321D49FFF7FAFB27A0FFF76FFF2AA0DB
:102600002BA32CA22FA10090042000F0DFFB044696
:1026100040F6B8323049FFF7E9FB10B12FA0FFF7C1
:102620005DFF1CBD41542B43574D4F44453F0000B7
:10263000040000200D0A0000080000200B0000200C
:1026400041542B43574D4F44453D31000A00002073
:1026500041542B5253540000BFCDBBA7B6CBC6F498
:10266000B6AFD6D00D0A00000E00002022000000F8
:10267000383736353433323130000000222C220016
:1026800068656C6C6F5F776F726C640041542B43AC
:10269000574A41503D22000077696669C1ACBDD3FD
:1026A000B3C9B9A60D0A0000353635360000000062
:1026B000222C00003139322E3136382E34332E3967
:1026C0000000000041542B43495053544152543DA3
:1026D00022544350222C22000F000020B7FECEF1DE
:1026E000C6F7C1ACBDD3B3C9B9A60D0A000000003E
:1026F00070B5044621460448FDF744FD05460DB17A
:10270000012070BD0020FCE74007002000BF054A03
:10271000126802F04002002AF9D0C2B2014B1B1D20
:102720001A6070470038014010B5002821D0114BC5
:102730000022001F196803E0814203D80A46496855
:102740000029F9D152B11368841A9C4204D100685F
:1027500018441060104602E0506000E0186039B183
:1027600002680B1A934203D10B681A44026049684D
:10277000416010BD2C000020FEF712F9FFF768FB46
:10278000FFF780FAFFF764FAFFF7A8FAFFF7DCFA21
:10279000FFF7F6FA012000F051FB00BFFEE7000052
:1027A000F0B50B30154D20F007010024144A0FE05E
:1027B00003688B420BD38B4205D95E1A43184768D6
:1027C000C3E9006700E04368136002C004E0021D33
:1027D00010680028ECD12046002802D1286808B1F2
:1027E0000020F0BD064A07481060074A121A22F07E
:1027F0000702C0E9002401202860D7E7300000204C
:102800002C00002044090020400B00202DE9F04757
:102810000546002400260027A046A1464B48007824
:10282000002873D06DE04FF00009285D682801D0C2
:10283000BDE8F087601C80B204462E5C4FF6FF7046
:1028400000EA0626601C80B20446285C304486B24A
:10285000301FFFF7A5FF8246601C285C682804D162
:10286000A019C01C285C162800D0E1E7A01C84B287
:102870002046611C8CB22F5C4FF6FF7000EA0727E0
:102880002046611C8CB2285C384487B209EB0700F3
:1028900000F0FF092046611C8CB215F800804FF64D
:1028A000FF7000EA08282046611C8CB2285C404476
:1028B0001FFA80F809EB080000F0FF0900200BE088
:1028C0002146621C94B2695C0AF800101AF80010E4
:1028D000494401F0FF09401C311F8142F0DC285DB2
:1028E0004844401C00B9A3E7A01C84B2301F81B249
:1028F00043463A46504600F0A0FA5046FFF714FF10
:1029000000BF285D00288ED11DE0FFE701E0601CBC
:1029100084B2285D0028FAD12046FFF741FF8246A5
:10292000002003E0295C0AF80010401CA042F9DBFB
:10293000301F81B243463A46504600F07EFA504678
:10294000FFF7F2FE00BF00BF72E700001300002097
:1029500010B562484078012876D161A0FFF7C8FE23
:1029600018B10120614908709EE061A0FFF7C0FE28
:1029700038B161A0FFF7BCFE18B1002060490870B3
:1029800092E060A0FFF7B4FE38B161A0FFF7B0FE9F
:1029900018B101205F49087086E05FA0FFF7A8FE2C
:1029A00030B14E4890F81D0630385E4908707BE023
:1029B0005DA0FFF79DFE18B101205F49087073E02C
:1029C0005EA0FFF795FE38B15FA0FFF791FE18B14A
:1029D0004FA0FFF78DFE18B95DA0FFF789FE18B173
:1029E0000120604908705FE05FA0FFF781FE58B1E9
:1029F00047A0FFF77DFE38B15EA0FFF779FE18B162
:102A000001205D4908704FE05CA0FFF771FE18B12E
:102A100001205C49087047E05BA0FFF769FE38B110
:102A20003BA0FFF765FE18B101205A4908703BE052
:102A300059A0FFF75DFE40B135A0FFF759FE20B168
:102A40000120594908702FE037E058A0FFF750FEE9
:102A500038B12FA0FFF74CFE18B10120564908707D
:102A600022E056A0FFF744FE38B129A0FFF740FE50
:102A700018B101205049087016E053A0FFF738FE46
:102A800058B154A0FFF734FE38B154A0FFF730FE20
:102A900018B101204849087006E052A0FFF728FE4F
:102AA00010B11BA0FFF724FE4FF400715048FDF752
:102AB00052FB002009494870C88008480078012866
:102AC0000BD14C48FFF7A2FE4FF400714948FDF7C7
:102AD00042FB002001490870888010BD38010020A9
:102AE00041540D0D0A0D0A4F4B0000000900002053
:102AF00041542B5253540000726561647900000008
:102B00000A00002041542B43574D4F44453D0000DF
:102B10004F4B00000B00002041542B43574D4F44B6
:102B2000453F0000080000205749464920434F4ECA
:102B30004E454354454400000E00002041542B43B1
:102B40004950535441525400434F4E4E4543540054
:102B5000414C524541445920434F4E4E4543544504
:102B6000440000000F00002041542B4349505345BE
:102B70004E4400003E0000000C00002053454E442F
:102B8000204F4B000D00002041542B435753415020
:102B90003D0000001100002041542B434950534593
:102BA00052564552000000001000002041542B43B3
:102BB00049504D55583D31001200002041542B43DF
:102BC00049504D55583D300041542B4349504D55C7
:102BD000580000006C696E6B000000006275696C43
:102BE0006465640041542B43494653520000000081
:102BF000400700204005002010B586B04FF47A70E1
:102C0000FDF718FD4FF6FF730A2233A1354800681F
:102C1000FEF7AFFF4FF6FF73022233A13148006881
:102C2000FEF7A7FF4FF4FA70FDF704FD2F48007878
:102C3000022812D064222E492EA0FFF7D7F810B137
:102C400001202B4908704FF4FA722D492DA0FFF78F
:102C5000CDF810B100202A4908702CA0FFF73EFCE7
:102C60002EA02FA12FA230A3CDE90132CDE9031070
:102C70002EA031A331A234A10090082000F0A6F8C4
:102C800004464FF4FA623349FFF7B0F810B132A0AE
:102C9000FFF724FCC822354935A0FFF7A7F810B18B
:102CA00036A0FFF71BFC3AA23BA1022000F08EF8F1
:102CB0000446C8223C49FFF799F810B13BA0FFF742
:102CC0000DFC4FF6FF730A223DA106480068FEF78F
:102CD00050FF06B010BD000041542B43574D4F44E8
:102CE000453F0000040000200D0A000008000020FD
:102CF0000B00002041542B43574D4F44453D3200BB
:102D00000A00002041542B5253540000B7FECEF16C
:102D1000C6F7C6F4B6AFD6D00D0A000034000000E6
:102D20002C00000031320000222C000031323334FC
:102D30003536373800000000222C2200776966699A
:102D400064656D6F0000000041542B4357534150A0
:102D50003D2200001100002077696669C8C8B5E30C
:102D6000B4B4BDA8B3C9B9A60D0A00001200002072
:102D700041542B4349504D55583D3100C9E8D6C305
:102D8000CEAAB6E0C1B4BDD3C4A3CABD0D0A00002B
:102D9000353635360000000041542B434950534529
:102DA000525645523D312C0010000020B7FECEF1A6
:102DB000C6F7B4B4BDA8B3C9B9A60D0A0000000097
:102DC00041542B43494653520D0A00000FB470B5CD
:102DD0009AB00024642101A8FDF7BDF91FA8009056
:102DE000009820C8009000200EE006E02B782146D5
:102DF000621CD4B201AA53546D1C29780029F5D164
:102E0000009920C90091401C1E998842EDDB0020EA
:102E100001A908552046FFF7C3FC06462146304667
:102E2000FDF799F901A93046FDF7A0F900200090BF
:102E300030461AB070BC5DF814FB704710B50446FC
:102E4000FDF7EEF90A20FDF7F5FB00F00DF808B9E3
:102E500000BFFEE7012C02D1FFF784FB03E0022C48
:102E600001D1FFF7C9FE10BD10B51BA0FFF736FB5F
:102E70001AA0FFF733FB24A0FFF730FB2DA0FFF7CC
:102E80002DFB21A0FFF72AFB14A0FFF727FB00244E
:102E90001CE0032C04DB32A0FFF720FB002010BD58
:102EA00064223B493BA0FEF7A1FF00B110E040F6D1
:102EB000B832394939A0FEF799FF10B100203649E0
:102EC00008704FF4FA70FDF7B5FB641C032CE0DDCD
:102ED00000BF0120E3E700000D0A00002A2A2A2A89
:102EE0002A2A2A2A2A2A2A2A2A2A2A2A2A2A2A2A42
:102EF0002A2A2A2A2A2A2A2A2A2A2A2A2A2A2A2A32
:102F00002A2A2A2A2A0D0A002A20202020202020CE
:102F100020202020202020202020202020202020B1
:102F200020202020202020202020202020202020A1
:102F30002A0D0A002A202020204A48585F45535075
:102F4000383236365F44454D4F202020207665725A
:102F500073696F6E20312E30202020202A0D0A0048
:102F60004154D6B8C1EEB2E2CAD4CAA7B0DCA3AC11
:102F7000C7EBBCECB2E9BDD3CFDFA1A2B9A9B5E7DD
:102F8000BBF2B8FCBBBBC4A3BFE90D0A0000000044
:102F900009000020415400000A00002041542B5237
:102FA0005354000000000000000000000102030470
:102FB000060708090000000001020304DC2F0008D6
:102FC0000000002034000000242500081030000814
:102FD000340000200C0F0000342500080000000021
:102FE000B40000200000000000000000000000010C
:102FF00000000000000000001000000001000000C0
:103000000024F400000000000000000000000000A8
:04000005080000ED02
:00000001FF
