:020000040800F2
:10000000400F002001010008752300088721000827
:1000100071230008F5060008912A0008000000007E
:10002000000000000000000000000000A123000804
:1000300035070008000000007723000801240008AD
:100040001B0100081B0100081B0100081B01000820
:100050001B0100081B0100081B0100081B01000810
:100060001B0100081B0100081B0100081B01000800
:100070001B0100081B0100081B010008F90600080D
:100080001B0100081B0100081B0100081B010008E0
:100090001B0100081B0100081B0100081B010008D0
:1000A0001B0100081B0100081B0100081B010008C0
:1000B000C92400081B0100081B0100081B010008DF
:1000C0001B0100081B0100081B0100081B010008A0
:1000D0001B010008E92900080D2A00081B0100087F
:1000E000370700081B0100081B010008DFF80CD0CF
:1000F00000F070FA00480047D5350008400F002096
:100100000648804706480047FEE7FEE7FEE7FEE7B1
:10011000FEE7FEE7FEE7FEE7FEE7FEE771240008E4
:10012000ED000008202A04DB203A21FA02F0002129
:10013000704721FA02F3D040C2F1200291400843F7
:100140001946704740EA01039B0703D009E008C93C
:10015000121F08C0042AFAD203E011F8013B00F88C
:10016000013B521EF9D27047D2B201E000F8012BD8
:10017000491EFBD270470022F6E710B513460A4627
:1001800004461946FFF7F0FF204610BD421E12F844
:10019000013F002BFBD111F8013B02F8013B002B82
:1001A000F9D1704730B505462A460B4612F8010BC7
:1001B00013F8014B08B1A042F8D01CB1002802D0BE
:1001C0006D1CF1E7284630BD421C10F8011B0029C8
:1001D000FBD1801A704730B50B4601460020202223
:1001E000012409E021FA02F59D4205D303FA02F544
:1001F000491B04FA02F52844151EA2F10102F1DCA4
:1002000030BD2DE9F05F0546002092469B468846AA
:100210000646814640241BE0284641464746224682
:10022000FFF780FF53465A46C01A914110D311463A
:100230001846224600F0E0F92D1A67EB01084F46F8
:1002400022460120002100F0D7F917EB00094E41AA
:10025000201EA4F10104DFDC484631462A4643460D
:10026000BDE8F09F2DE9FE4F804681EA0300C00FF4
:100270000C46009021F0004123F00045B8EB02004D
:10028000A94105D24046214690461C460B460246EF
:1002900023F00040104347D0270DC7F30A00C3F3F3
:1002A0000A510290401A019040286BDAC3F3130000
:1002B00040F4801B0098924620B10023D2EB030A41
:1002C00063EB0B0B01985946C0F14002504600F019
:1002D00093F906460D4650465946019A00F09BF99F
:1002E00010EB08006141002487EA115284EAE773A9
:1002F0001A4340D0009A62B3019A012A4FEA07528A
:1003000015DC001B61EB02014FF0004202EA0752CC
:10031000CDE90042001C41F5801132462B4600F029
:100320009BF903B0BDE8F08F40462146F9E7001B7A
:1003300061EB0201001C41F5801300185B4120189D
:10034000A2F5001747EB030140EAD570B6196D41DD
:1003500011E06D084FEA360645EAC0754FEA0752CC
:10036000001B61EB0201001C41F5801149084FEAB6
:1003700030000019514132462B4603B0BDE8F04F22
:1003800000F05BB90098012240000023D0EB02028C
:1003900063EBE073009821464FEAE074B8EB00008D
:1003A00061EB0401E9E783F000435BE781F0004182
:1003B00058E72DE9FE4F81EA030404F0004421F0E0
:1003C000004100944FF0000B23F0004350EA010479
:1003D0005ED052EA03045BD0C3F30A54C1F30A555A
:1003E0002C44A4F2F3340194A0FB0254C1F3130192
:1003F00041F48011C3F3130343F4801301FB02445F
:1004000000FB034E840A970A44EA815447EA835763
:10041000A4FB076802958D0A05FB07854FEA932C1C
:1004200004FB0C542705029D4FEA065847EA16378D
:10043000B5EB08056EEB070C870E920E47EA8117A5
:1004400042EA8312A7FB0201B6EB0B0164EB000446
:100450002B0D43EA0C335E1844EB1C50DA46514630
:10046000E7FB0201C5F313044FEA0B3343EA1453CD
:100470004FEA0432019C43EA0603A4F10C040294FF
:10048000009CCDE900B400F0E7F803B0BDE8F08FC0
:1004900000200146F9E72DE9F04D81EA030404F05C
:1004A000004B21F0004514464FF0000A23F00041B4
:1004B00050EA050220D054EA01021DD0C5F30A57C4
:1004C0000246C5F31303C1F31300C1F30A5640F407
:1004D000801543F48013A7EB0608101BD64608F2DC
:1004E000FD3873EB050002D308F1010801E0921812
:1004F0005B41B8F1000F03DA00200146BDE8F08D42
:1005000000204FF48011064684460EE0171B73EB63
:10051000050705D3121B63EB050306434CEA010CE8
:1005200049084FEA300092185B4150EA0107EDD1CB
:1005300052EA030012D082EA040083EA050108436C
:1005400005D0101BAB4106D20122002306E0002299
:100550004FF0004302E06FF0010253101AEB060067
:100560004CEB085110EB0A0041EB0B01BDE8F04DDC
:1005700000F063B8C1F30A52C1F3130140F2FF3334
:1005800041F480119A4202DA00200146704740F29D
:1005900033439A42A2F2334202DC5242FFF7C2BD19
:1005A00000F02AB830B5041E71F1000404DB4FF0EE
:1005B0000044404264EB0101141E73F1000405DBAA
:1005C0001C464FF00043524263EB0403994208BFBC
:1005D000904230BD064C074D06E0E06840F0010354
:1005E00094E8070098471034AC42F6D3FFF782FD39
:1005F0005040000870400008202A04DB203A00FA2E
:1006000002F1002070479140C2F1200320FA03F369
:10061000194390407047202A06DBCB17203A41FA55
:1006200002F043EAE07306E041FA02F3D040C2F17F
:100630002002914008431946704710B5141E73F10B
:10064000000408DA401C41F1000192185B411A4392
:1006500001D120F0010010BD2DE9F04D92469B46DE
:1006600011B1B1FA81F202E0B0FA80F22032904684
:10067000FFF7C2FF04460F4640EA0A0041EA0B01B9
:1006800053465A46084313D0114653EA010019D085
:10069000C8F140025046FFF745FD05460E4650465C
:1006A00059464246FFF7A8FF084305D0012004E061
:1006B00020463946BDE8F08D0020054346EAE07645
:1006C0002C4337430A986305E40AA0EB0800002294
:1006D000FD0A44EA47540A3002D500200146E9E702
:1006E000010510196941DDE9084500196941BDE8B6
:1006F000F04DA2E700BFFEE710B5024800F0DCF8BD
:1007000010BD0000FC08002030B590F840500124D6
:10071000AC40C56B6C60046863604468102C04D105
:100720000468A2600468E16003E00468A1600468F2
:10073000E26030BD704710B54FF4005000F022FA6F
:1007400010BD000008B5174800680068C06840F098
:100750002000144909680968C860124800680068E8
:10076000C06840F010000F4909680968C86000BF00
:10077000002000900B48006800680068009009485D
:10078000006800684068009000BF00BF4FF48062BE
:1007900005490448006801F091FB044801F05AF84B
:1007A00008BD0000000000203C0000203C080020A4
:1007B00070470146002291F82100022808D0042049
:1007C000886300BF002081F8200000BF012070472F
:1007D0000868006820F00E000B6818600868006860
:1007E00020F001000B68186091F84030012098401B
:1007F000CB6B5860012081F8210000BF002081F8F8
:10080000200000BF1046E2E770B50446002594F8CA
:100810002100022803D00420A063012548E02068BD
:10082000006820F00E00216808602068006820F051
:100830000100216808601F492068884201D1012019
:1008400026E01C4914312068884201D110201FE0A5
:10085000184928312068884201D1801518E01549CF
:100860003C312068884201D1801411E01149503197
:100870002068884202D14FF4803009E00D4964318C
:100880002068884202D14FF4801001E04FF0807060
:10089000084908394860012084F8210000BF002081
:1008A00084F8200000BF606B10B12046616B884760
:1008B000284670BD0800024070B50446E06B05682C
:1008C0002068066894F840100420884028400028DA
:1008D00046D006F00400002842D02068006800F0EE
:1008E000200028B92068006820F004002168086012
:1008F00057492068884201D1042027E05449143127
:100900002068884201D1402020E0514928312068E8
:10091000884201D1001519E04D493C3120688842D8
:1009200002D14FF4804011E049495031206888429B
:1009300002D14FF4802009E04549643120688842A3
:1009400002D14FF4800001E04FF080604049083947
:100950004860E06A00287AD02046E16A884776E05D
:1009600094F84010022088402840A0B306F002000E
:1009700088B32068006800F0200040B92068006853
:1009800020F00A0021680860012084F82100304925
:100990002068884201D1022028E02D4914312068C6
:1009A000884201D1202021E029492831206888424D
:1009B00001D140151AE026493C312068884202D115
:1009C0004FF4005012E0224950312068884203D190
:1009D0004FF400300AE017E01D4964312068884276
:1009E00002D14FF4001001E04FF0007018490839AF
:1009F000486000BF002084F8200000BFA06A30B328
:100A00002046A16A884722E094F8401008208840D8
:100A10002840E0B106F00800C8B12068006820F066
:100A20000E002168086094F8401001208840E16BB6
:100A300048600120A06384F8210000BF002084F8F2
:100A4000200000BF206B10B12046216B884770BD8D
:100A5000080002400146002209B901207047164BE8
:100A60000868C01A1423B0FBF3F080000864124831
:100A70000838C863022081F821000868026843F63C
:100A8000F0708243D1E901031843CB6818430B6926
:100A900018434B6918438B691843CB6918430243C9
:100AA0000868026000208863012081F8210000208E
:100AB00081F8200000BFD1E7080002402DE9F04195
:100AC00004460D4616461F464FF0000800BF94F836
:100AD0002000012802D10220BDE8F081012084F825
:100AE000200000BF94F8210001282CD1022084F8B6
:100AF00021000020A0632068006820F00100216828
:100B000008603B46324629462046FFF7FDFDE06A75
:100B100030B12068006840F00E00216808600BE0EA
:100B20002068006820F004002168086020680068E0
:100B300040F00A00216808602068006840F0010069
:100B40002168086006E000BF002084F8200000BF94
:100B50004FF002084046BFE770B5044600F0B6F912
:100B600006462546681C10B104480078054400BFBD
:100B700000F0ACF9801BA842FAD370BD2000002021
:100B80007047000010B5044604480068204020B1BA
:100B9000024804602046FFF7F3FF10BD1404014033
:100BA0002DE9F8470346002294466EE14FF0010814
:100BB00008FA02F4D1F8008008EA0400A0427DD1CE
:100BC000DFF8DCA2D1F80480A8EB0A09D0453AD0BE
:100BD00014DCB8F1030F50D009DCB8F1000F31D0AC
:100BE000B8F1010F1CD0B8F1020F49D120E0B8F1E3
:100BF000110F18D0B8F1120F42D11EE0B9F5881FBD
:100C000025D006DCB9F5803F20D0B9F5801F37D15B
:100C10001AE0B9F5001F18D0B9F5041F30D117E05C
:100C2000D1F80CC02DE0D1F80C8008F1040C28E0BC
:100C3000D1F80C8008F1080C23E0D1F80C8008F101
:100C40000C0C1EE000BF00BF00BF00BF00BF00BF14
:100C5000D1F80880B8F1000F02D14FF0040C0BE07E
:100C6000D1F80880B8F1010F03D14FF0080C1C61D6
:100C700002E04FF0080C5C6103E04FF0000C00E074
:100C800000BF00BFFF2801D8984601E003F1040827
:100C90004646FF2802D84FEA820803E0A2F108087E
:100CA0004FEA88084746D6F800804FF00F0909FA46
:100CB00007F928EA09080CFA07F900E088E048EA91
:100CC0000908C6F80080D1F8048008F08058B8F10F
:100CD000805F7DD100BFDFF8CC81D8F8188048F064
:100CE0000108DFF8C091C9F81880C846D8F8188004
:100CF00008F00108CDF8008000BF00BF4FEAB93806
:100D00004FEA920958F829504FEA82784FEA187949
:100D10004FF00F0808FA09F825EA0805DFF888817E
:100D2000434502D14FF0000816E0DFF880814345CB
:100D300002D14FF001080FE0DFF87481434502D182
:100D40004FF0020808E0DFF86C81434502D14FF014
:100D5000030801E04FF004084FEA82794FEA19795D
:100D600008FA09F848EA0505DFF84C814FEA9209CC
:100D700048F82950D1F8048008F48038B8F5803F4D
:100D80000AD1DFF83881D8F8008048EA0008DFF897
:100D90002C91C9F8008009E0DFF82081D8F80080A4
:100DA00028EA0008DFF81491C9F80080D1F804801F
:100DB00008F40038B8F5003F10D1DFF8008108F1E1
:100DC0000408D8F8008048EA0008DFF8F09000E056
:100DD0005AE009F10409C9F800800DE0DFF8DC8071
:100DE00008F10408D8F8008028EA0008DFF8CC9061
:100DF00009F10409C9F80080D1F8048008F48018CA
:100E0000B8F5801F0ED1DFF8B48008F10808D8F8D3
:100E1000008048EA0008DFF8A49009F10809C9F841
:100E200000800DE0DFF8948008F10808D8F8008011
:100E300028EA0008DFF8849009F10809C9F8008061
:100E4000D1F8048008F40018B8F5001F0ED1DFF8BF
:100E50006C8008F10C08D8F8008048EA0008DFF838
:100E60005C9009F10C09C9F800800DE0DFF84C80B6
:100E700008F10C08D8F8008028EA0008DFF83C9058
:100E800009F10C09C9F80080521CD1F8008028FA39
:100E900002F8B8F1000F7FF489AEBDE8F8870000D2
:100EA000000011100010024000080140000C014039
:100EB00000100140001401400800014000040140FE
:100EC0000AB1016101E00B04036170470148006849
:100ED00070470000180000200348006803490978A3
:100EE00008440149086070471800002020000020D5
:100EF00010B50848006840F010000649086003205B
:100F000000F0ACF8002000F007F800F02BF800200B
:100F100010BD00000020024070B504460E48007865
:100F20004FF47A71B1FBF0F00C490968B1FBF0F5B0
:100F3000284600F00FFC08B1012070BD102C07D22C
:100F400000222146501E00F04BF80548046001E0E5
:100F50000120F2E70020F0E720000020240000201C
:100F60001C00002008B500BF1348806940F0010054
:100F7000114988610846806900F00100009000BFB7
:100F800000BF00BF0846C06940F08050C8610846F5
:100F9000C06900F08050009000BF00BF052000F045
:100FA0005DF800BF0549486820F0E06040F000703F
:100FB000486000BF08BD0000001002400000014072
:100FC00001460846002809DB00F01F0301229A4071
:100FD00043099B0003F1E023C3F8002100BF7047E1
:100FE0002DE9F05F80460D461646002701F062FDB0
:100FF000074639462A46334601F00700C0F1070A82
:10100000BAF1040F02D94FF0040A01E0C0F1070A57
:10101000D14600F1040ABAF1070F02D24FF0000ADC
:1010200001E0A0F1030AD4464FF0010A0AFA09FAD6
:10103000AAF1010A0AEA020A0AFA0CFA4FF0010BB5
:101040000BFA0CFBABF1010B0BEA030B4AEA0B04A6
:101050002146404601F036FDBDE8F09F00BF00F09C
:101060000702064B19684FF6FF031940044B0B4368
:1010700043EA0221014B196000BF70470CED00E00C
:101080000000FA0570B504460D460CB9012070BD8C
:101090005A48006800F00700A8420ED2574800687E
:1010A00020F007002843554908600846006800F012
:1010B0000700A84201D00120E9E7207800F00200F3
:1010C00002281DD1207800F00400042805D14C48E6
:1010D000406840F4E0604A494860207800F0080029
:1010E000082805D14648406840F4605044494860AB
:1010F0004348406820F0F000A16808434049486038
:10110000207800F0010078B36068012806D13C48DF
:10111000006800F4003090B90120B8E76068022848
:1011200006D13748006800F0007040B90120AEE7F2
:101130003348006800F0020008B90120A7E73048F2
:10114000406820F00300616808432D494860FFF7BC
:10115000BDFE064609E0FFF7B9FE801B41F288316B
:10116000884202D9032092E707E02548406800F052
:101170000C006168B0EB810FEDD12048006800F0F1
:101180000700A8420ED91D48006820F00700284338
:101190001A4908600846006800F00700A84201D01C
:1011A000012074E7207800F00400042807D11448D7
:1011B000406820F4E060E168084311494860207805
:1011C00000F00800082808D10D48406820F460505D
:1011D000216940EAC1000A49486000F03FF8084927
:1011E0004968C1F30311074A515CC84006490860C9
:1011F00006480068FFF790FE002048E70020024004
:101200000010024038400008240000201C0000208C
:1012100001480068704700002400002000B5FFF777
:10122000F7FF04494968C1F30221034A515CC840F1
:1012300000BD0000001002404840000800B5FFF764
:10124000E7FF04494968C1F3C221034A515CC84021
:1012500000BD00000010024048400008F0B585B015
:101260000FF26C0C9CE8E01001A8A0E8E0101CA5AF
:101270002D68009500210022002300240020194D34
:10128000696801F00C05F5B1042D02D0082D19D1C3
:1012900001E0154819E001ADC1F38346AC5D01F4EE
:1012A000803555B10F4D6D68C5F340451DF80520DB
:1012B0000D4D6543B5FBF2F302E00C4D04FB05F365
:1012C000184602E000BF084800BF00BF05B0F0BDEF
:1012D00002030405060708090A0B0C0D0E0F101077
:1012E000010200000010024000127A0000093D00D7
:1012F000F8B504460CB90120F8BD207800F00100D3
:10130000002878D0F848406800F00C0004280CD081
:10131000F548406800F00C00082811D1F2484068F8
:1013200000F48030B0F5803F0AD1EF48006800F447
:10133000003000285FD0606800285CD10120DBE726
:1013400000BF6068B0F5803F06D1E748006840F410
:101350008030E549086028E0606858B9E2480068D4
:1013600020F48030E04908600846006820F48020BE
:1013700008601AE06068B0F5A02F0BD1DA48006869
:1013800040F48020D84908600846006840F4803066
:1013900008600AE0D448006820F48030D249086030
:1013A0000846006820F48020086000BF606888B1AB
:1013B000FFF78CFD054606E0FFF788FD401B64281B
:1013C00001D9032098E7C848006800F400300028DD
:1013D000F2D010E0FFF77AFD054606E0FFF776FD54
:1013E000401B642801D9032086E7BF48006800F449
:1013F00000300028F2D1207800F00200022857D1F6
:10140000B948406800F00C0050B1B748406800F09F
:101410000C00082818D1B448406800F4803098B90E
:10142000B148006800F0020020B12069012801D015
:10143000012061E7AC48006820F0F800616940EAEB
:10144000C100A949086033E02069E8B10120A7493B
:101450000860FFF73BFD054606E0FFF737FD401B40
:10146000022801D9032047E79F48006800F00200E6
:101470000028F2D09C48006820F0F800616940EA3A
:10148000C1009949086013E0002098490860FFF7FF
:101490001DFD054606E0FFF719FD401B022801D996
:1014A000032029E79048006800F002000028F2D1EC
:1014B000207800F0080008282DD1A069B8B10120DB
:1014C0008B490860FFF702FD054606E0FFF7FEFCCA
:1014D000401B022801D903200EE78348406A00F030
:1014E00002000028F2D0012000F046FF13E00020A7
:1014F0007F490860FFF7EAFC054606E0FFF7E6FCD7
:10150000401B022801D90320F6E67748406A00F024
:1015100002000028F2D1207800F00400042873D1E2
:1015200000277148C06900F0805070B900BF6E4854
:10153000C06940F080506C49C8610846C06900F03D
:101540008050009000BF00BF01276A48006800F487
:101550008070B0B96748006840F4807065490860E1
:10156000FFF7B4FC054606E0FFF7B0FC401B64281B
:1015700001D90320C0E65F48006800F480700028AD
:10158000F2D000BFE068012806D15748006A40F059
:1015900001005549086227E0E06858B95248006ADE
:1015A00020F00100504908620846006A20F004005B
:1015B000086219E0E06805280BD14B48006A40F04A
:1015C0000400494908620846006A40F001000862C8
:1015D0000AE04548006A20F00100434908620846D5
:1015E000006A20F00400086200BFE068A0B1FFF7C5
:1015F0006DFC054609E0FFF769FC401B41F28831AC
:10160000884202D9032077E622E03748006A00F0DA
:1016100002000028EFD012E0FFF758FC054608E072
:10162000FFF754FC401B41F28831884201D9032066
:1016300062E62D48006A00F002000028F0D1012F78
:1016400005D12948C06920F080502749C86100BFF2
:10165000E069C8B32448406800F00C00082860D056
:10166000E069022848D1002020490866FFF72EFCD7
:10167000054606E0FFF72AFC401B022801D903209B
:101680003AE61948006800F000700028F2D1206A9C
:10169000B0F5803F07D11448406820F40030A168BD
:1016A000084311494860D4E9080108430E494968D4
:1016B00021F4741108430C49486001200B49086665
:1016C000FFF704FC054607E03DE0FFF7FFFB401B8A
:1016D000022801D903200FE60348006800F00070DB
:1016E0000028F2D02FE0000000100240000042422B
:1016F0008004424200700040002014490866FFF751
:10170000E5FB054606E0FFF7E1FB401B022801D997
:101710000320F1E50E48006800F000700028F2D1C7
:1017200011E0E069012800D1E6E50948466806F4C1
:101730008031206A814204D106F47011606A8142CE
:1017400001D00120D8E50020D6E50000000042428B
:101750000010024070B504462546681EB0F1807F37
:1017600001D301200FE0681E4FF0E02148610F21F6
:101770004FF0FF3001F0A6F900204FF0E021886122
:1017800007200861002070BD7047704710B5024601
:1017900000BF92F83C00012801D1022010BD0120B9
:1017A00082F83C0000BF022082F83D0010684368C8
:1017B0001068846823F070030868034324F08004F1
:1017C000486804431068436010688460012082F810
:1017D0003D0000BF002082F83C0000BF00BFDDE7F5
:1017E00010B504460CB9012010BD94F83D0028B98D
:1017F000002084F83C00204600F00CF8022084F819
:101800003D00211D206800F067FE012084F83D00A6
:101810000020E9E738B504462068B0F1804F15D1C3
:1018200000BF0B48C06940F001000949C861084683
:10183000C06900F00100009000BF00BF002201213C
:101840001C20FFF7CDFB1C20FFF7BAFB38BD0000C2
:101850000010024001460868C06840F001000B68B3
:10186000D8600868806800F00702062A05D008687A
:10187000006840F001000B681860002070472DE9F7
:10188000F04104460D4600BF94F83C00012802D107
:101890000220BDE8F081012084F83C0000BF022056
:1018A00084F83D002068866826F0770626F47F4697
:1018B000206886602868502833D00CDC202850D05F
:1018C00004DC00284BD0102851D149E0302849D001
:1018D00040284CD139E060282DD0702807D0B0F5D1
:1018E000805F03D0B0F5005F41D10DE040E0D5E965
:1018F00002136A68206800F029FE2068866846F0B6
:1019000077062068866033E0D5E902136A682068AC
:1019100000F01CFE2068806840F4804021688860E8
:1019200026E0EA686968206800F024FE50212068FB
:1019300000F017FE1CE0EA686968206800F02DFEE0
:101940006021206800F00DFE12E0EA6869682068F6
:1019500000F010FE4021206800F003FE08E000BF08
:1019600000BF00BF2968206800F0FBFD00E000BF59
:1019700000BF012084F83D0000BF002084F83C0037
:1019800000BF00BF85E7704710B5044620680069B6
:10199000C0F34000D8B12068C068C0F34000B0B1C7
:1019A0006FF00200216808610120207720688069BB
:1019B00000F0030018B12046FFF7E5FF05E02046E0
:1019C00000F0ADF8204600F0ABF80020207720684A
:1019D0000069C0F38000D8B12068C068C0F38000FF
:1019E000B0B16FF004002168086102202077206800
:1019F000806900F4407018B12046FFF7C4FF05E08D
:101A0000204600F08CF8204600F08AF8002020776D
:101A100020680069C0F3C000D8B12068C068C0F376
:101A2000C000B0B16FF00800216808610420207781
:101A30002068C06900F0030018B12046FFF7A3FF3B
:101A400005E0204600F06BF8204600F069F8002021
:101A5000207720680069C0F30010D8B12068C06802
:101A6000C0F30010B0B16FF01000216808610820C9
:101A700020772068C06900F4407018B12046FFF755
:101A800082FF05E0204600F04AF8204600F048F8C2
:101A9000002020772068006900F0010058B120681C
:101AA000C06800F0010030B16FF0010021680861EA
:101AB000204600F037F820680069C0F3C01058B124
:101AC0002068C068C0F3C01030B16FF0800021689A
:101AD00008612046FFF758FE20680069C0F38010B7
:101AE00058B12068C068C0F3801030B16FF040007A
:101AF00021680861204600F02DF820680069C0F3D5
:101B0000401058B12068C068C0F3401030B16FF089
:101B10002000216808612046FFF737FE10BD70479E
:101B20007047000010B50446084884420DD10848AB
:101B30000078401C06490870084600780A2804DB33
:101B400001F046FE00200249087010BD3C0800204C
:101B500014000020704770B50446002520684069D5
:101B6000C0F3C01594F8390021280ED16DB120685A
:101B7000406920F0800021684861206B10B1206B23
:101B8000FEF717FE204600F098FD20684069C0F37C
:101B9000801594F83A0022280ED16DB12068406972
:101BA00020F0400021684861606B10B1606BFEF767
:101BB00000FE204600F061FD002070BD704700006F
:101BC0002DE9F0470446206805682068C66820684B
:101BD00047694FF00008C14605F00F08B8F1000F43
:101BE0000AD105F0200038B106F0200020B12046CF
:101BF00000F06DFDBDE8F087B8F1000F6DD007F083
:101C0000010018B906F49070002866D005F00100B4
:101C100030B106F4807018B1E06B40F00100E06371
:101C200005F0040030B107F0010018B1E06B40F09E
:101C30000200E06305F0020030B107F0010018B1C6
:101C4000E06B40F00400E06305F0080030B107F0FD
:101C5000010018B1E06B40F00800E063E06B68B38E
:101C600005F0200028B106F0200010B1204600F059
:101C70002EFD20684069C0F38019E06B00F0080079
:101C800010B9B9F1000F22D0204600F0F6FC206810
:101C9000406900F04000B0B12068406920F0400089
:101CA00021684861606B50B11748616B4863606B95
:101CB000FEF7AAFD10B1606B416B88470CE020462F
:101CC000FFF77CFF08E02046FFF778FF04E020469E
:101CD000FFF774FF0020E0638CE705F0800030B16F
:101CE00006F0800018B1204600F014FE82E705F0EF
:101CF000400030B106F0400018B1204600F0CDFCA5
:101D000078E700BF76E70000C325000810B5044659
:101D10000CB9012010BDA06900B100E000BF94F82B
:101D2000390028B9002084F83800204600F028F84F
:101D3000242084F839002068C06820F4005021680D
:101D4000C860204600F016FD2068006920F490402D
:101D5000216808612068406920F02A0021684861F4
:101D60002068C06840F400502168C8600020E0632B
:101D7000202084F8390084F83A000020CAE70000E7
:101D800010B586B0044600200290039004900590A0
:101D900044492068884252D100BF4348806940F4DA
:101DA0008040414988610846806900F48040019084
:101DB00000BF00BF00BF0846806940F00400886192
:101DC0000846806900F00400019000BF00BF48157C
:101DD0000290022003900320059002A93348FEF7E9
:101DE000DFFE4FF48060029000200390049002A96F
:101DF0002E48FEF7D5FE2E482E4908600020486088
:101E000000212C4881608021C16000210161416175
:101E100081614FF40051C161FEF71CFE08B1FEF76D
:101E2000C7FC00BF23486063446200BF0022114624
:101E30002520FFF7D5F82520FFF7C2F82FE01E492F
:101E4000206888422BD100BF1748C06940F4003099
:101E50001549C8610846C06900F40030019000BF10
:101E600000BF00BF0846806940F004008861084652
:101E7000806900F00400019000BF00BF0C200290B8
:101E800002200390059002A90848FEF789FE01226E
:101E900000212620FFF7A4F82620FFF791F806B0CE
:101EA00010BD000000380140001002400008014051
:101EB00058000240FC0800200044004077B581B083
:101EC0000446154694F83A00202850D1029800B1F3
:101ED00015B9012004B070BD00BF94F83800012886
:101EE00001D10220F6E7012084F8380000BF0298F3
:101EF000A062A5850020E063222084F83A001D48F6
:101F0000616B88621C48616BC8621C48616B086326
:101F10000020616B486302AE32682368191D2B46AE
:101F2000606BFEF7CBFD00BF0020009020680068CA
:101F3000009020684068009000BF00BF00BF0020F4
:101F400084F8380000BF2068C06840F480702168C1
:101F5000C8602068406940F001002168486120683D
:101F6000406940F04000216848610020B2E702204B
:101F7000B0E70000272600086D260008D7250008D6
:101F80002DE9F041074645A14648FEF70BF980468A
:101F90000024002544493868884278D1B8F1000F00
:101FA00049D000BF601C81B20C463E48405C3A28D4
:101FB000F8D100BF601E81B20C463A48405C2C2824
:101FC000F8D1601C84B20AE02046611C8CB235490D
:101FD000085C303805EB850100EB410085B23148E3
:101FE000005D3A28F0D1601C86B22E4808388088FF
:101FF000002811DD2B4A9119083A938802F5816275
:1020000098182A46FEF79EF8264808388088284403
:1020100024490839888009E0224881192A4600F5B8
:102020008060FEF78FF81F480838858001201D4921
:10203000083908702BE01B480838C088002814DDD8
:10204000184908394A88CB8801F5C16158181549E3
:10205000FEF778F813480838C088124908394988CB
:10206000084410490839C8800DE00E4808384288F5
:102070000C4900F5C160FEF765F80A480838408849
:1020800008490839C88001200649083948704FF4CA
:1020900080610448FEF76FF8BDE8F0812B49504499
:1020A000000000003C0000200038014070472DE98E
:1020B000F84304460D4616461F464FF0000994F8B3
:1020C000390020285CD105B116B90120BDE8F8839C
:1020D00000BF94F83800012801D10220F6E7012062
:1020E00084F8380000BF0020E063212084F8390024
:1020F000FEF7ECFE8146A684E6842BE0E08C401ED1
:10210000E084A068B0F5805F16D14B4600228021A4
:102110002046009700F032FC08B10320D6E7A8461D
:10212000B8F80000C0F3080021684860206908B9C9
:10213000AD1C0FE06D1C0DE04B46002280212046B7
:10214000009700F01BFC08B10320BFE715F8010B56
:1021500021684860E08C0028D0D14B460022402105
:102160002046009700F00AFC08B10320AEE72020CB
:1021700084F8390000BF002084F8380000BFA5E7CC
:102180000220A3E7704700BFFEE7000008B500BFCC
:102190000A48406940F00100084948610846406922
:1021A00000F00100009000BF00BF002211460F2088
:1021B000FEF716FF0F20FEF703FF08BD00100240D8
:1021C00000B585B00020019002900390049000BFFC
:1021D0002C48806940F010002A49886108468069CF
:1021E00000F01000009000BF00BF00BF08468069EB
:1021F00040F0200088610846806900F020000090CF
:1022000000BF00BF00BF0846806940F0040088613D
:102210000846806900F00400009000BF00BF00BFC6
:102220000846806940F0080088610846806900F02F
:102230000800009000BF00BF002220211248FEF7D6
:102240003FFE4FF400500190104802900020039090
:1022500001A90F48FEF7A4FC202001900120029064
:10226000002003900220049001A90748FEF798FC83
:10227000002211462820FEF7B3FE2820FEF7A0FE1C
:1022800005B000BD00100240000801400000111020
:102290000010014000B587B0002003900490059025
:1022A0000690019002904FF080401449086047204A
:1022B000486000211148816042F20F71C160002125
:1022C00001618161FFF78CFA08B1FEF771FA4FF4F2
:1022D0008050039003A90948FFF7D1FA08B1FEF72F
:1022E00067FA00200190029001A90448FFF74EFA16
:1022F00008B1FEF75DFA07B000BD00003C08002001
:1023000010B50B480B4908604FF4E13048600021DC
:1023100008488160C16001610C2141610021816137
:10232000C161FFF7F3FC08B1FEF742FA10BD0000EF
:10233000003801407C08002010B50B480B490860AC
:102340004FF4E1304860002108488160C1600161BC
:102350000C21416100218161C161FFF7D7FC08B107
:10236000FEF726FA10BD000000440040BC08002023
:1023700000BFFEE77047704708B508490968C908FB
:102380004FF47A72B1FBF2F14143009100BF00BFFC
:1023900000994A1E00920029F9D108BD24000020AE
:1023A000704700002DE9F04104460D46164600270F
:1023B0001EE02046FDF708FF1FFA80F84FF6FF7376
:1023C000424621460C480068FFF771FE4FF6FF7346
:1023D00002220AA108480068FFF769FE3046FEF7AE
:1023E000BBFB287810B10120BDE8F081781CC7B292
:1023F000032FDEDB0020F7E7000000200D0A0000BD
:1024000010B5FEF769FD10BD00B58FB0282105A8F5
:10241000FDF7B1FE14216846FDF7ADFE01200590E1
:1024200000040690002007900120099002200C90E3
:10243000C1030D914FF4E0110E9105A8FEF758FF6E
:1024400008B1FEF7B5F90F2000900220019000209E
:1024500002904FF4806003900020049002216846AF
:10246000FEF710FE08B1FEF7A3F90FB000BD0000A3
:102470001148006840F001000F49086008464068B4
:102480000E4908400C494860084600680C4908405D
:10249000094908600846006820F480200860084662
:1024A000406820F4FE0048604FF41F008860C803B5
:1024B0000449086070470000001002400000FFF867
:1024C000FFFFF6FE08ED00E010B50248FFF75CFAEA
:1024D00010BD00003C08002010B50268184B98425F
:1024E00008D0B0F1804F05D0164B984202D0164B61
:1024F000984203D122F070024B681A43104B984265
:1025000008D0B0F1804F05D00E4B984202D00E4B50
:10251000984203D122F44072CB681A4322F0800320
:102520004C6943EA040202608B68C3620B688362F1
:10253000034B984201D10B6903630123436110BD32
:10254000002C0140000400400008004030B50C465B
:10255000816821F47F4142EA0325254329438160B4
:1025600030BD0A46816821F0700142F0070319432B
:102570008160704730B50B461446026A056A25F043
:1025800001050562816921F0F00141EA041122F0A0
:102590000A021A438161026230BD30B50B4614460F
:1025A000056A25F0100505628169026A21F470410F
:1025B00041EA043122F0A00242EA03128161026280
:1025C00030BD70B505466C6A0020E085E084204689
:1025D000FFF7F4FA70BD70B506460025746A2068EE
:1025E0004069C0F3C01594F83900212805D125B100
:1025F0000020E084204600F060F820684069C0F3C5
:10260000801594F83A00222805D125B10020E085F4
:10261000204600F032F8E06B40F01000E063204606
:10262000FFF7CCFA70BD70B505466C6A2868006883
:1026300000F02000B0B90020E0852068C06820F4D8
:1026400080702168C8602068406920F0010021681E
:1026500048612068406920F04000216848612020DE
:1026600084F83A002046FFF78BFC70BD70B5044635
:10267000656A2846FFF71AFD70BD0168C96821F434
:1026800090710268D1600168496921F00101026816
:102690005161202180F83A10704710B50446206837
:1026A000C06820F040002168C860202084F839000C
:1026B0002046FFF767FD002010BD0168C96821F0C2
:1026C000C0010268D160202180F83910704770B5D0
:1026D000044694F83A0022284AD1A068B0F5805FF9
:1026E00013D1A56A206940B920684068C0F308008A
:1026F0002880A06A801CA06219E020684068C0B2EF
:102700002880A06A401CA06211E0206938B92068C6
:102710004068C1B2A26A501CA062117007E0206834
:10272000406800F07F01A26A501CA0621170E08D29
:10273000401E80B2E085C8B92068C06820F0200043
:102740002168C8602068C06820F480702168C86073
:102750002068406920F0010021684861202084F849
:102760003A002046FFF70CFC002070BD0020FCE77B
:102770000220FAE770B504462168096921F4405146
:10278000E2681143226811612269A16811436269FC
:1027900041EA02052168C96841F20C62914329436C
:1027A0002268D1602168496921F44071A26911430E
:1027B00022685161564A2168914254D1FEF73EFD8C
:1027C00000EBC00101EB001162689200B1FBF2F175
:1027D00000EBC00202EB001263689B00B2FBF3F255
:1027E0006423B2FBF3F202EBC20303EB0212A1EB90
:1027F0008201322202EB01116422B1FBF2F101F0FD
:10280000F00100EBC00202EB001263689B00B2FB18
:10281000F3F26423B2FBF3F201EB021200EBC0010E
:1028200001EB001163689B00B1FBF3F100EBC00307
:1028300003EB00136668B600B3FBF6F36426B3FB44
:10284000F6F303EBC30606EB0313A1EB830132237C
:1028500003EB01116423B1FBF3F101F00F0111440B
:102860002268916053E0FEF7D9FC00EBC00101EB58
:10287000001162689200B1FBF2F100EBC00202EBC2
:10288000001263689B00B2FBF3F26423B2FBF3F225
:1028900002EBC20303EB0212A1EB8201322202EB34
:1028A00001116422B1FBF2F101F0F00100EBC00272
:1028B00002EB001263689B00B2FBF3F26423B2FBED
:1028C000F3F201EB021200EBC00101EB00116368AF
:1028D0009B00B1FBF3F100EBC00303EB0013666850
:1028E000B600B3FBF6F36426B3FBF6F303EBC306C3
:1028F00006EB0313A1EB8301322303EB01116423E5
:10290000B1FBF3F101F00F0111442268916070BD39
:1029100000380140014691F8390021282CD18868FF
:10292000B0F5805F0FD10A6A1088C0F308000B6809
:102930005860086918B9086A801C086209E0086ACA
:10294000401C086205E00B6A581C086218780B6886
:102950005860C88C401E80B2C88458B90868C068E6
:1029600020F080000B68D8600868C06840F0400024
:102970000B68D860002070470220FCE72DE9F04189
:1029800004460D4617469846069E21E0701CF8B195
:102990002EB1FEF79BFAA0EB0800B04218D92068D0
:1029A000C06820F4D0702168C8602068406920F0B9
:1029B000010021684861202084F8390084F83A0039
:1029C00000BF002084F8380000BF0320BDE8F0817C
:1029D000206800682840A84201D1012000E00020C2
:1029E000B842D3D00020F1E710B500F017F8054841
:1029F000FFF7E6F84FF4806203490248FFF75EFAFA
:102A000010BD00007C0800203C00002010B50248EA
:102A1000FFF7D6F810BD0000BC08002038B51948F3
:102A2000006800680068C0F3001050B3002400BFC5
:102A3000002000901348006800680068009011486A
:102A4000006800684068009000BF00BF0D48006843
:102A5000FFF781F80B4800680068006884B20948F5
:102A600000680068406884B207480068406884B223
:102A7000C4F580600549488002480068FFF780FA85
:102A800000BF38BD00000020FC08002034000020FA
:102A900000BFFEE70FB4054B10B503A9044A029826
:102AA00000F0F6F810BC5DF814FB00006935000872
:102AB0002800002002480068C0F302207047000090
:102AC0000CED00E010B5002804DB0A07130E054AE0
:102AD000135406E00A07140E034A00F00F031B1FED
:102AE000D45410BD00E400E018ED00E002E008C896
:102AF000121F08C1002AFAD170477047002001E078
:102B000001C1121F002AFBD1704700002DE9FF5FB1
:102B100082B00021DDE90430020DDDF840B003434E
:102B200018D044F61050A2F2FF3242431514119807
:102B300001281FD0A5EB0B00401C5FEA000A4FF0F4
:102B400000064E4FDFF83891B046504615D5CAF111
:102B5000000413E0119801244AA3012801D16FEA6F
:102B60000B010298119AC0E90031C0E9024206B097
:102B7000BDE8F09FCBF10000DFE704460021404AAA
:102B8000491842EB0450CDE9001012E0E00707D0ED
:102B900032463B4640464946FDF70BFC8046894697
:102BA00032463B4610461946FDF703FC06460F46E3
:102BB0006410002CEAD1DDE90401DDE90023BAF15B
:102BC000000F06DAFDF7F5FB42464B46FDF7F1FB39
:102BD00005E0FDF760FC42464B46FDF75CFC044611
:102BE0000E460022284BFDF7DDFC03D84FF0FF30E6
:102BF000014607E00022254B20463146FDF732FB17
:102C0000FDF7B8FC102409E0002C0ADB0A2200239F
:102C1000FDF7F7FA039B30321A55641E50EA0102A1
:102C2000F2D1641C039AC4F111031444119A012ACD
:102C300003D0012208430DD10AE0084304D000204C
:102C40004FF0110B119072E7A3EB0B056D1E0DE019
:102C50005B4504DD4FF0000205F1010504E003DAF5
:102C60004FF00002A5F10105002AECD0029811995D
:102C7000C0E90231C0E9004579E7000000001440D6
:102C80000000F03F300000000000F0430000E03F93
:102C90002DE9FF4F95B09B468946064600250FE279
:102CA000252877D100242746F84A0121059400E021
:102CB000044316F8013F203B01FA03F01042F7D11C
:102CC00030782A2811D06FF02F033078A0F130022D
:102CD000092A16D8059A44F0020402EB820203EB9B
:102CE00042021044761C0590EFE759F8042B059238
:102CF000002A03DA504244F40054059044F00204E0
:102D0000761C30782E2816D116F8010F44F00404F2
:102D10002A280DD06FF02F023078A0F13003092B54
:102D200009D807EB870302EB4303C718761CF3E7C8
:102D300059F8047B761C30786C280FD006DC4C28C0
:102D400017D068280DD06A2814D104E0742810D058
:102D50007A280FD10DE044F400140AE044F4801402
:102D600001E044F440147278824202D104F58014E8
:102D7000761C761C307866280BD013DC582877D068
:102D800009DC002875D04528F6D04628F4D047281D
:102D90001AD19DE118E0632835D0642879D06528E0
:102DA00012D195E1702873D008DC6728F1D069282A
:102DB0006FD06E280DD06F2806D1B5E073282CD0C7
:102DC000752875D0782874D05A46179990476D1C8D
:102DD00075E1C4F30250022809D003280DD0D9F8B8
:102DE000001004280DD00D6009F1040967E1D9F83D
:102DF0000010EA17C1E90052F6E7D9F800100D807B
:102E0000F2E70D70F0E719F8041B8DF800100020B0
:102E10008DF80100EA46012003E059F804AB4FF0B9
:102E2000FF3061074FF0000102D40DE008F101010D
:102E30008846B9420FDA8045F8DB1AF808100029F5
:102E4000F4D108E008F1010188468142FADB1AF862
:102E500008100029F6D105985B46A0EB080721462B
:102E60003846179A00F094FA284400EB080507E06A
:102E70004DE029E10DE01AF8010B5A4617999047E9
:102E8000B8F10108F7D25B4621463846179A13E19C
:102E900042E00A220092C4F302524FF0000A022AD2
:102EA00008D059F804CB032A4FEAEC710AD00DE0A0
:102EB00029E02AE009F1070121F00702F2E802C146
:102EC000914609E00FFA8CFC4FEAEC71042A03D119
:102ED0004FFA8CFC4FEAEC71002907DA0A46002110
:102EE000DCF1000C61EB02012D2202E0220504D589
:102EF0002B228DF80420012203E0E20701D02022DA
:102F0000F7E7904659E00A2102E010220DE0102177
:102F10004FF0000A00910BE010224FF0000A44F03D
:102F200004040827009203E008224FF0000A0092F0
:102F3000C4F30252022A05D059F804CB0021032A17
:102F400008D009E009F1070121F00702F2E802C107
:102F5000914605E01FFA8CFC042A01D10CF0FF0C0D
:102F60004FF00008220728D5702806D0009B83F078
:102F7000100353EA0A0305D00EE040228DF8042026
:102F8000012208E05CEA010206D030228DF804201C
:102F90008DF8050002229046009B83F0080353EA57
:102FA0000A030AD15CEA010201D1620705D5302289
:102FB0008DF804204FF001087F1E582804D034A05B
:102FC00003900EA802900DE036A0F9E75346604644
:102FD000009AFDF716F984460398825C0298401E19
:102FE000029002705CEA0100F0D1029806A9081A6A
:102FF00000F1200A600702D524F4803400E00127A4
:10300000574502DDA7EB0A0000E0002000EB0A01B3
:10301000009005984144401A0590E00306D45B46B1
:103020002146179A059800F0B3F90544002706E0F9
:1030300001A85A46C05D179990476D1C7F1C4745F3
:10304000F6DBE0030CD55B462146179A059800F0A5
:103050009FF9054404E030205A46179990476D1CAB
:103060000099481E00900029F5DC08E002980299BA
:103070005A460078491C0291179990476D1CBAF185
:103080000001AAF1010AF1DC65E100000928010054
:1030900030313233343536373839616263646566CE
:1030A0000000000030313233343536373839414290
:1030B000434445460000000000F058F90544761CE2
:1030C000307800287FF4ECAD19B02846BDE8F08FC9
:1030D000620700D4062709F1070222F0070CFCE87A
:1030E0000223E14603F000485FEA080C02D00FF229
:1030F000702C0DE05FEA045C02D50FF2682C07E04B
:103100005FEAC47C02D00FF2602C01E0AFF2700CD9
:103110004FF0FF3823F00043CDF850C065280CD0A5
:1031200006DC452809D046281DD047283DD13DE082
:10313000662818D067287ED138E00021112F01DBE6
:10314000112000E0781CCDE9000106A90EA8FFF7C8
:10315000DDFCDDE90F010E9A03910021009207F1D9
:10316000010A04914DE04FF000400097CDE90110B5
:1031700006A90EA8FFF7CAFCDDE90F0203920E9B19
:1031800011990022DDF80CA00093049211B9791C6A
:1031900000EB010AB7EB0A0004D4C0F1FF3007F1DD
:1031A000010A0490AAEB0700019044E0012F00DA25
:1031B00001270021112F01DD112000E03846CDE963
:1031C000000106A90EA8FFF7A1FCDDE90F010E9A88
:1031D0000391002104910092BA4621070CD403996F
:1031E000514500DA8A46BAF1010F05DD009AAAF1CD
:1031F0000101515C302908D0B84202DA10F1040F05
:1032000006DA0121CDE9011015E0AAF10101E9E793
:10321000002805DC049901440491AAEB000102E0B6
:10322000411C514500DD8A460499401A401C01901A
:103230004FF000400290200704D40198504501DB74
:10324000CDF8048000208DF84F0002980DF14F0753
:10325000B0F1004F25D02B200E9002984FF00208BD
:1032600000280CDA404202902D200E9007E00A213F
:103270000298FCF7B0FF3031029007F8011DB8F159
:103280000001A8F10108F2DC02980028EFD1791EB4
:103290000E980870307800F0200040F0450007F8E4
:1032A000020D12A8C01B00F107081498007800B1A5
:1032B000012000EB0A01019801EBE07105984144FF
:1032C000401A401E0590E00306D45B462146179A3B
:1032D000059800F05DF805441498007818B15A4636
:1032E000179990476D1CE00324D55B462146179A39
:1032F000059800F04DF805441CE00498002807DB11
:10330000DDE90301884203DD0098405C179901E084
:10331000179930205A469047049805F10105401C42
:1033200004900198401E019004D12E205A4617990E
:1033300090476D1CBAF10001AAF1010ADDDC05E03D
:1033400017F8010B5A46179990476D1CB8F1000108
:10335000A8F10108F4DC5B462146179A0598ABE614
:103360002D0000002B000000200000002DE9F0419E
:10337000044600251E461746880404D405E0394655
:103380002020B0476D1C641EF9D52846BDE8F081A9
:103390002DE9F041044600251E469046C80301D59C
:1033A000302700E02027880404D505E04146384650
:1033B000B0476D1C641EF9D52846BDE8F0810000B9
:1033C0001CB54FF47A70FDF7C7FB4FF6FF730A2266
:1033D0002BA12E480068FEF76AFE4FF6FF7302220B
:1033E0002BA12A480068FEF762FE4FF4FA70FDF741
:1033F000B3FB28480078012812D06422264927A070
:10340000FEF7D0FF10B10120234908704FF4FA7283
:10341000254926A0FEF7C6FF10B1002022490870FA
:103420004FF4FA60FDF798FB22A0FFF733FB254825
:10343000007878B924A025A127A328A2CDE90010FF
:1034400029A1052000F00CFD044641F288321D49F7
:10345000FEF7A8FF27A0FFF71DFB2AA02BA32CA295
:103460002FA10090042000F0FBFC044640F6B83287
:103470003049FEF797FF10B12FA0FFF70BFB1CBDE3
:1034800041542B43574D4F44453F0000000000205E
:103490000D0A0000040000200700002041542B43C7
:1034A000574D4F44453D31000600002041542B52FA
:1034B00053540000BFCDBBA7B6CBC6F4B6AFD6D031
:1034C0000D0A00000A0000202200000038373635BF
:1034D0003433323130000000222C220068656C6CDD
:1034E0006F5F776F726C640041542B43574A4150B1
:1034F0003D22000077696669C1ACBDD3B3C9B9A6E6
:103500000D0A00003536353600000000222C000080
:103510003139322E3136382E34332E390000000046
:1035200041542B43495053544152543D225443502B
:10353000222C22000B000020B7FECEF1C6F7C1AC52
:10354000BDD3B3C9B9A60D0A0000000070B504468A
:1035500021460448FCF726FE05460DB1012070BD4A
:103560000020FCE73C06002000BF054A126802F07C
:103570004002002AF9D0C2B2014B1B1D1A607047ED
:103580000044004010B5002821D0114B0022001F3C
:10359000196803E0814203D80A4649680029F9D135
:1035A00052B11368841A9C4204D100681844106018
:1035B000104602E0506000E0186039B102680B1A52
:1035C000934203D10B681A4402604968416010BD00
:1035D0002C0000201CB510A103C9CDE90001FDF7A6
:1035E00087FCFEF711FFFEF7EBFDFEF7CFFDFEF7C0
:1035F00087FEFEF7A1FEFEF74DFE012000F068FCFD
:1036000009E006236A460121084600F0A3FA4FF4B8
:10361000FA60FDF7A1FAF4E73132333435360000B1
:10362000F0B50B30154D20F007010024144A0FE0CF
:1036300003688B420BD38B4205D95E1A4318476847
:10364000C3E9006700E04368136002C004E0021DA4
:1036500010680028ECD12046002802D1286808B163
:103660000020F0BD064A07481060074A121A22F0EF
:103670000702C0E9002401202860D7E730000020BD
:103680002C00002044090020400B00202DE9F047C9
:103690000546002400260027A046A1464B48007896
:1036A000002873D06DE04FF00009285D682801D034
:1036B000BDE8F087601C80B204462E5C4FF6FF70B8
:1036C00000EA0626601C80B20446285C304486B2BC
:1036D000301FFFF7A5FF8246601C285C682804D1D4
:1036E000A019C01C285C162800D0E1E7A01C84B2F9
:1036F0002046611C8CB22F5C4FF6FF7000EA072752
:103700002046611C8CB2285C384487B209EB070064
:1037100000F0FF092046611C8CB215F800804FF6BE
:10372000FF7000EA08282046611C8CB2285C4044E7
:103730001FFA80F809EB080000F0FF0900200BE0F9
:103740002146621C94B2695C0AF800101AF8001055
:10375000494401F0FF09401C311F8142F0DC285D23
:103760004844401C00B9A3E7A01C84B2301F81B2BA
:1037700043463A46504600F0AAFB5046FFF702FF88
:1037800000BF285D00288ED11DE0FFE701E0601C2E
:1037900084B2285D0028FAD12046FFF741FF824617
:1037A000002003E0295C0AF80010401CA042F9DB6D
:1037B000301F81B243463A46504600F088FB5046DF
:1037C000FFF7E0FE00BF00BF72E700000F0000201F
:1037D00010B564484078012876D163A0FFF7B6FEA3
:1037E00018B10120634908709EE063A0FFF7AEFEA8
:1037F00038B163A0FFF7AAFE18B100206249087033
:1038000092E062A0FFF7A2FE38B163A0FFF79EFE30
:1038100018B101206149087086E061A0FFF796FEAB
:1038200030B1504890F81D063038604908707BE090
:103830005FA0FFF78BFE18B101206149087073E0AB
:1038400060A0FFF783FE38B161A0FFF77FFE18B1DB
:1038500051A0FFF77BFE18B95FA0FFF777FE18B104
:103860000120624908705FE061A0FFF76FFE58B168
:1038700049A0FFF76BFE38B160A0FFF767FE18B1F3
:1038800001205F4908704FE05EA0FFF75FFE18B1AE
:1038900001205E49087047E05DA0FFF757FE38B190
:1038A0003DA0FFF753FE18B101205C4908703BE0D2
:1038B0005BA0FFF74BFE40B137A0FFF747FE20B1FA
:1038C00001205B4908702FE03AE05AA0FFF73EFE66
:1038D00038B131A0FFF73AFE18B1012058490870FD
:1038E00022E058A0FFF732FE38B12BA0FFF72EFEE2
:1038F00018B101205249087016E055A0FFF726FEC6
:1039000058B156A0FFF722FE38B156A0FFF71EFEB1
:1039100018B101204A49087006E054A0FFF716FECE
:1039200010B11DA0FFF712FE5348FFF7B3F84FF494
:1039300000715148FCF71FFC00200A494870C880FC
:103940000848007801280BD14C48FFF79FFE4FF440
:1039500000714A48FCF70FFC00200249087088807B
:1039600010BD00003400002041540D0D0A0D0A4F17
:103970004B0000000500002041542B52535400001E
:1039800072656164790000000600002041542B43F9
:10399000574D4F44453D00004F4B000007000020AD
:1039A00041542B43574D4F44453F00000400002035
:1039B0005749464920434F4E4E4543544544000025
:1039C0000A00002041542B434950535441525400A3
:1039D000434F4E4E45435400414C524541445920BB
:1039E000434F4E4E45435445440000000B00002019
:1039F00041542B43495053454E4400003E000000C3
:103A00000800002053454E44204F4B000900002081
:103A100041542B43575341503D0000000D000020FE
:103A200041542B4349505345525645520000000023
:103A30000C00002041542B4349504D55583D310056
:103A40000E00002041542B4349504D55583D300045
:103A500041542B4349504D55580000006C696E6B22
:103A6000000000006275696C6465640041542B437A
:103A700049465352000000003C0600203C04002050
:103A8000F8B505460B26002000902D49086012E08D
:103A90000A2095FBF0F100FB11503030C1B22848EC
:103AA00002680068401C264B18600DF802100A20BE
:103AB00095FBF0F085B2002DEAD12149096801F1AA
:103AC0000D00FFF7ADFD04461D4801780068401E5B
:103AD0001B4ACFB21060104601680D312046FCF73A
:103AE0004AFB18A12046FCF751FB0BE01448016883
:103AF0000068401E124A10601DF801203046711CFB
:103B0000CEB222540E4800680028EFDA0D2231466A
:103B1000701CC6B262540A223046711CCEB22254C6
:103B20000020A0554FF6FF7307F10D02214608480B
:103B30000068FEF7BCFA2046FFF724FDF8BD000040
:103B40001000002041542B43495053454E443D0042
:103B5000000000202DE9F0470746884692461E46A1
:103B60000025A946B6F5806F01DDBDE8F08706F1B6
:103B70000A00FFF755FD044668222946681C85B2F5
:103B80006254301DC0F307222946681C85B2625476
:103B9000301DC2B22946681C85B26254682229468B
:103BA000681C85B262543A122946681C85B2625478
:103BB0002946681C85B267544FEA28222946681CAA
:103BC00085B262542946681C85B204F80180002041
:103BD00006E01AF8003029466A1C95B26354401C6E
:103BE000B042F6DB042004E0215C494401F0FF0907
:103BF000401C06F108018842F6DB6FEA090000F07C
:103C0000FF092846691C8DB204F800901622284648
:103C1000691C8DB2225414A0FEF73CFF06F10A0184
:103C200088B2FFF72DFF00BF124800780028FBD0B4
:103C300006F10A0082B24FF6FF7321460E48006873
:103C4000FEF735FA00BF0D4800780028FBD00020B1
:103C5000084908700949087009A0FEF71BFF2046B3
:103C6000FFF790FC00BF80E7B7A2CBCDCAFDBEDD59
:103C700000000000080000200000002009000020D3
:103C8000B7A2CBCDB3C9B9A60000000010B586B06D
:103C90004FF47A70FCF760FF4FF6FF730A2233A1EE
:103CA00035480068FEF703FA4FF6FF73022233A18E
:103CB00031480068FEF7FBF94FF4FA70FCF74CFF4F
:103CC0002F480078022812D064222E492EA0FEF739
:103CD00069FB10B101202B4908704FF4FA722D498D
:103CE0002DA0FEF75FFB10B100202A4908702CA020
:103CF000FEF7D0FE2EA02FA12FA230A3CDE90132D6
:103D0000CDE903102EA031A331A234A100900820E8
:103D100000F0A6F804464FF4FA623349FEF742FB7E
:103D200010B132A0FEF7B6FEC822354935A0FEF725
:103D300039FB10B136A0FEF7ADFE3AA23BA102203E
:103D400000F08EF80446C8223C49FEF72BFB10B168
:103D50003BA0FEF79FFE4FF6FF730A223DA10648E7
:103D60000068FEF7A4F906B010BD000041542B43D3
:103D7000574D4F44453F0000000000200D0A000051
:103D8000040000200700002041542B43574D4F44AE
:103D9000453D32000600002041542B525354000090
:103DA000B7FECEF1C6F7C6F4B6AFD6D00D0A000006
:103DB000340000002C00000031320000222C0000F2
:103DC000313233343536373800000000222C2200DF
:103DD0007769666964656D6F0000000041542B438C
:103DE000575341503D2200000D000020776966695D
:103DF000C8C8B5E3B4B4BDA8B3C9B9A60D0A0000DC
:103E00000E00002041542B4349504D55583D310080
:103E1000C9E8D6C3CEAAB6E0C1B4BDD3C4A3CABD57
:103E20000D0A0000353635360000000041542B43A2
:103E300049505345525645523D312C000C0000204C
:103E4000B7FECEF1C6F7B4B4BDA8B3C9B9A60D0A82
:103E50000000000041542B43494653520D0A000014
:103E60000FB470B59AB00024642101A8FCF783F95F
:103E70001FA80090009820C8009000200EE006E0E7
:103E80002B782146621CD4B201AA53546D1C2978A8
:103E90000029F5D1009920C90091401C1E99884243
:103EA000EDDB002001A908552046FFF7B9FB0646C7
:103EB00021463046FCF75FF901A93046FCF766F968
:103EC0000020009030461AB070BC5DF814FB7047BB
:103ED00010B50446FCF736FC0A20FCF73DFE00F066
:103EE0000DF808B900BFFEE7012C02D1FFF768FA10
:103EF00003E0022C01D1FFF7C9FE10BD10B51BA0D5
:103F0000FEF7C8FD1AA0FEF7C5FD24A0FEF7C2FD0E
:103F10002DA0FEF7BFFD21A0FEF7BCFD14A0FEF70B
:103F2000B9FD00241CE0032C04DB32A0FEF7B2FD37
:103F3000002010BD64223B493BA0FEF733FA00B1DC
:103F400010E040F6B832394939A0FEF72BFA10B12B
:103F50000020364908704FF4FA70FCF7FDFD641C30
:103F6000032CE0DD00BF0120E3E700000D0A0000A4
:103F70002A2A2A2A2A2A2A2A2A2A2A2A2A2A2A2AA1
:103F80002A2A2A2A2A2A2A2A2A2A2A2A2A2A2A2A91
:103F90002A2A2A2A2A2A2A2A2A0D0A002A20202006
:103FA0002020202020202020202020202020202011
:103FB0002020202020202020202020202020202001
:103FC000202020202A0D0A002A202020204A48589C
:103FD0005F455350383236365F44454D4F202020E0
:103FE0002076657273696F6E20312E30202020207C
:103FF0002A0D0A004154D6B8C1EEB2E2CAD4CAA70B
:10400000B0DCA3ACC7EBBCECB2E9BDD3CFDFA1A25F
:10401000B9A9B5E7BBF2B8FCBBBBC4A3BFE90D0AA5
:1040200000000000050000204154000006000020B0
:1040300041542B52535400000000000000000000C7
:10404000010203040607080900000000010203043E
:10405000704000080000002034000000EC2A000836
:10406000A4400008340000200C0F0000FC2A0008C7
:104070007C0800200000000000000000000000019B
:104080000000000000000000000000001000000020
:10409000010000000024F400000000000000000007
:0440A000000000001C
:04000005080000ED02
:00000001FF
